{
  "contractName": "MedicineD_P",
  "abi": [
    {
      "inputs": [
        {
          "name": "BatchID",
          "type": "address"
        },
        {
          "name": "Sender",
          "type": "address"
        },
        {
          "name": "Shipper",
          "type": "address"
        },
        {
          "name": "Receiver",
          "type": "address"
        }
      ],
      "payable": false,
      "stateMutability": "nonpayable",
      "type": "constructor"
    },
    {
      "constant": false,
      "inputs": [
        {
          "name": "BatchID",
          "type": "address"
        },
        {
          "name": "Shipper",
          "type": "address"
        }
      ],
      "name": "pickDP",
      "outputs": [],
      "payable": false,
      "stateMutability": "nonpayable",
      "type": "function"
    },
    {
      "constant": false,
      "inputs": [
        {
          "name": "BatchID",
          "type": "address"
        },
        {
          "name": "Receiver",
          "type": "address"
        }
      ],
      "name": "recieveDP",
      "outputs": [],
      "payable": false,
      "stateMutability": "nonpayable",
      "type": "function"
    },
    {
      "constant": true,
      "inputs": [],
      "name": "getBatchIDStatus",
      "outputs": [
        {
          "name": "",
          "type": "uint256"
        }
      ],
      "payable": false,
      "stateMutability": "view",
      "type": "function"
    }
  ],
  "bytecode": "0x608060405234801561001057600080fd5b506040516080806104bb8339810180604052608081101561003057600080fd5b5080516020820151604083015160609093015160008054600160a060020a0319908116600160a060020a03948516908117835560018054831696861696909617909555600280548216909517909455600380548516958416959095179094556004805490931691161760a060020a60ff02191690556104069081906100b590396000f3fe608060405260043610610050577c0100000000000000000000000000000000000000000000000000000000600035046332a60e008114610055578063d2f3fcc714610092578063d39ff0e7146100b9575b600080fd5b34801561006157600080fd5b506100906004803603604081101561007857600080fd5b50600160a060020a03813581169160200135166100f4565b005b34801561009e57600080fd5b506100a7610262565b60408051918252519081900360200190f35b3480156100c557600080fd5b50610090600480360360408110156100dc57600080fd5b50600160a060020a0381358116916020013516610293565b600454600160a060020a0382811691161461019657604080517f08c379a000000000000000000000000000000000000000000000000000000000815260206004820152603060248201527f4f6e6c79204173736f6369617465642072656365697665722063616e2063616c60448201527f6c20746869732066756e6374696f6e2e00000000000000000000000000000000606482015290519081900360840190fd5b600480546002919074ff000000000000000000000000000000000000000019167401000000000000000000000000000000000000000083021790555081600160a060020a0316634175699d826040518263ffffffff167c01000000000000000000000000000000000000000000000000000000000281526004018082600160a060020a0316600160a060020a03168152602001915050600060405180830381600087803b15801561024657600080fd5b505af115801561025a573d6000803e3d6000fd5b505050505050565b60045460009074010000000000000000000000000000000000000000900460ff16600281111561028e57fe5b905090565b600354600160a060020a0382811691161461033557604080517f08c379a000000000000000000000000000000000000000000000000000000000815260206004820152602f60248201527f4f6e6c79204173736f63696174656420736869707065722063616e2063616c6c60448201527f20746869732066756e6374696f6e2e0000000000000000000000000000000000606482015290519081900360840190fd5b6004805474ff000000000000000000000000000000000000000019167401000000000000000000000000000000000000000017808255600254604080517fa19ffd60000000000000000000000000000000000000000000000000000000008152600160a060020a03938416948101949094529082166024840152519084169163a19ffd6091604480830192600092919082900301818387803b15801561024657600080fdfea165627a7a72305820ec66e98b6c5dab837fec98a6918500c3ace5c025fad2baa88a1af2ec9139d7c50029",
  "source": "pragma solidity >=0.4.25 <0.6.0;\n\nimport './Medicine.sol';\n\n/********************************************** MedicineD_P ******************************************/\n/// @title MedicineD_P\n/// @notice\n/// @dev Sub Contract for Medicine Transaction between Distributer and Pharma\ncontract MedicineD_P {\n    /// @notice\n    address Owner;\n\n    enum packageStatus { atcreator, picked, delivered}\n\n    /// @notice\n    address batchid;\n    /// @notice\n    address sender;\n    /// @notice\n    address shipper;\n    /// @notice\n    address receiver;\n    /// @notice\n    packageStatus status;\n\n    /// @notice\n    /// @dev Create SubContract for Medicine Transaction\n    /// @param BatchID Medicine BatchID\n    /// @param Sender Distributer Ethereum Network Address\n    /// @param Shipper Transporter Ethereum Network Address\n    /// @param Receiver Pharma Ethereum Network Address\n    constructor(\n        address BatchID,\n        address Sender,\n        address Shipper,\n        address Receiver\n    ) public {\n        Owner = Sender;\n        batchid = BatchID;\n        sender = Sender;\n        shipper = Shipper;\n        receiver = Receiver;\n        status = packageStatus(0);\n    }\n\n    /// @notice\n    /// @dev Pick Medicine Batch by Associated Transporter\n    /// @param BatchID Medicine BatchID\n    /// @param Shipper Transporter Ethereum Network Address\n    function pickDP(\n        address BatchID,\n        address Shipper\n    ) public {\n        require(\n            Shipper == shipper,\n            \"Only Associated shipper can call this function.\"\n        );\n        status = packageStatus(1);\n\n        Medicine(BatchID).sendDP(\n            receiver,\n            sender\n        );\n    }\n\n    /// @notice\n    /// @dev Recieved Medicine Batch by Associate Distributer\n    /// @param BatchID Medicine BatchID\n    /// @param Receiver Pharma Ethereum Network Address\n    function recieveDP(\n        address BatchID,\n        address Receiver\n    ) public {\n        require(\n            Receiver == receiver,\n            \"Only Associated receiver can call this function.\"\n        );\n        status = packageStatus(2);\n\n        Medicine(BatchID).recievedDP(\n            Receiver\n        );\n    }\n\n    /// @notice\n    /// @dev Get Medicine Batch Transaction status in between Distributer and Pharma\n    /// @return Transaction status\n    function getBatchIDStatus() public view returns(\n        uint\n    ) {\n        return uint(status);\n    }\n\n}\n",
  "sourcePath": "/home/celebal/personal/ethereum/Blockchain_SupplyChain/contracts/MedicineD_P.sol",
  "compiler": {
    "name": "solc",
    "version": "0.5.1+commit.c8a2cb62.Emscripten.clang"
  },
  "schemaVersion": "3.0.0",
  "updatedAt": "2019-03-08T10:18:04.959Z",
  "devdoc": {
    "methods": {
      "constructor": {
        "params": {
          "BatchID": "Medicine BatchID",
          "Receiver": "Pharma Ethereum Network Address",
          "Sender": "Distributer Ethereum Network Address",
          "Shipper": "Transporter Ethereum Network Address"
        }
      },
      "getBatchIDStatus()": {
        "return": "Transaction status"
      },
      "pickDP(address,address)": {
        "params": {
          "BatchID": "Medicine BatchID",
          "Shipper": "Transporter Ethereum Network Address"
        }
      },
      "recieveDP(address,address)": {
        "params": {
          "BatchID": "Medicine BatchID",
          "Receiver": "Pharma Ethereum Network Address"
        }
      }
    },
    "title": "MedicineD_P"
  },
  "userdoc": {
    "methods": {
      "constructor": "@dev Create SubContract for Medicine Transaction",
      "getBatchIDStatus()": {
        "notice": "@dev Get Medicine Batch Transaction status in between Distributer and Pharma"
      },
      "pickDP(address,address)": {
        "notice": "@dev Pick Medicine Batch by Associated Transporter"
      },
      "recieveDP(address,address)": {
        "notice": "@dev Recieved Medicine Batch by Associate Distributer"
      }
    },
    "notice": "@dev Sub Contract for Medicine Transaction between Distributer and Pharma"
  }
}