{
  "contractName": "SupplyChain",
  "abi": [
    {
      "constant": true,
      "inputs": [],
      "name": "Owner",
      "outputs": [
        {
          "name": "",
          "type": "address"
        }
      ],
      "payable": false,
      "stateMutability": "view",
      "type": "function",
      "signature": "0xb4a99a4e"
    },
    {
      "inputs": [],
      "payable": false,
      "stateMutability": "nonpayable",
      "type": "constructor",
      "signature": "constructor"
    },
    {
      "anonymous": false,
      "inputs": [
        {
          "indexed": true,
          "name": "EthAddress",
          "type": "address"
        },
        {
          "indexed": false,
          "name": "Name",
          "type": "bytes32"
        }
      ],
      "name": "UserRegister",
      "type": "event",
      "signature": "0x33a7170f028b1e4f5ba321064a00ed820856a920c7f9c6636fbcf385427b1b0f"
    },
    {
      "anonymous": false,
      "inputs": [
        {
          "indexed": true,
          "name": "EthAddress",
          "type": "address"
        },
        {
          "indexed": false,
          "name": "Name",
          "type": "bytes32"
        },
        {
          "indexed": false,
          "name": "Role",
          "type": "uint256"
        }
      ],
      "name": "UserRoleRevoked",
      "type": "event",
      "signature": "0xb5f04dfc1ccfefb366c4dc7a23670362462e0a415afb89d8cba1fb657e264c96"
    },
    {
      "anonymous": false,
      "inputs": [
        {
          "indexed": true,
          "name": "EthAddress",
          "type": "address"
        },
        {
          "indexed": false,
          "name": "Name",
          "type": "bytes32"
        },
        {
          "indexed": false,
          "name": "Role",
          "type": "uint256"
        }
      ],
      "name": "UserRoleRessigne",
      "type": "event",
      "signature": "0x4c8b3f61ed94356876db0fec52d6a7c6aeaf772c4e0ca8f6da74331cc0f687cc"
    },
    {
      "anonymous": false,
      "inputs": [
        {
          "indexed": true,
          "name": "ProductID",
          "type": "address"
        },
        {
          "indexed": true,
          "name": "Supplier",
          "type": "address"
        },
        {
          "indexed": false,
          "name": "Shipper",
          "type": "address"
        },
        {
          "indexed": true,
          "name": "Receiver",
          "type": "address"
        }
      ],
      "name": "RawSupplyInit",
      "type": "event",
      "signature": "0x9dbe7d9fdd28b9b1c2ffe79a40f7beff124537ed0d7a47555d009e0271fc6133"
    },
    {
      "anonymous": false,
      "inputs": [
        {
          "indexed": true,
          "name": "BatchId",
          "type": "address"
        },
        {
          "indexed": true,
          "name": "Manufacturer",
          "type": "address"
        },
        {
          "indexed": false,
          "name": "shipper",
          "type": "address"
        },
        {
          "indexed": true,
          "name": "Receiver",
          "type": "address"
        }
      ],
      "name": "MedicineNewBatch",
      "type": "event",
      "signature": "0xa464e8d0d73596ec44ad2f56ca60a8fc4ef75e1b7b0b3f46fe1e073fb5da11b5"
    },
    {
      "anonymous": false,
      "inputs": [
        {
          "indexed": false,
          "name": "BatchID",
          "type": "address"
        },
        {
          "indexed": true,
          "name": "Pharma",
          "type": "address"
        },
        {
          "indexed": false,
          "name": "status",
          "type": "uint256"
        }
      ],
      "name": "MedicineStatus",
      "type": "event",
      "signature": "0x778762ccb04f5a8838ed8914b13eb6f118224696959cbfa0cfea54133f76a7d5"
    },
    {
      "constant": false,
      "inputs": [
        {
          "name": "EthAddress",
          "type": "address"
        },
        {
          "name": "Name",
          "type": "bytes32"
        },
        {
          "name": "Location",
          "type": "bytes32"
        },
        {
          "name": "Role",
          "type": "uint256"
        }
      ],
      "name": "registerUser",
      "outputs": [],
      "payable": false,
      "stateMutability": "nonpayable",
      "type": "function",
      "signature": "0x923f645a"
    },
    {
      "constant": false,
      "inputs": [
        {
          "name": "userAddress",
          "type": "address"
        }
      ],
      "name": "revokeRole",
      "outputs": [],
      "payable": false,
      "stateMutability": "nonpayable",
      "type": "function",
      "signature": "0x80e52e3f"
    },
    {
      "constant": false,
      "inputs": [
        {
          "name": "userAddress",
          "type": "address"
        },
        {
          "name": "Role",
          "type": "uint256"
        }
      ],
      "name": "reassigneRole",
      "outputs": [],
      "payable": false,
      "stateMutability": "nonpayable",
      "type": "function",
      "signature": "0x373d5c18"
    },
    {
      "constant": true,
      "inputs": [
        {
          "name": "User",
          "type": "address"
        }
      ],
      "name": "getUserInfo",
      "outputs": [
        {
          "name": "name",
          "type": "bytes32"
        },
        {
          "name": "location",
          "type": "bytes32"
        },
        {
          "name": "ethAddress",
          "type": "address"
        },
        {
          "name": "role",
          "type": "uint8"
        }
      ],
      "payable": false,
      "stateMutability": "view",
      "type": "function",
      "signature": "0x6386c1c7"
    },
    {
      "constant": true,
      "inputs": [],
      "name": "getUsersCount",
      "outputs": [
        {
          "name": "count",
          "type": "uint256"
        }
      ],
      "payable": false,
      "stateMutability": "view",
      "type": "function",
      "signature": "0xa4a1e263"
    },
    {
      "constant": true,
      "inputs": [
        {
          "name": "index",
          "type": "uint256"
        }
      ],
      "name": "getUserbyIndex",
      "outputs": [
        {
          "name": "name",
          "type": "bytes32"
        },
        {
          "name": "location",
          "type": "bytes32"
        },
        {
          "name": "ethAddress",
          "type": "address"
        },
        {
          "name": "role",
          "type": "uint8"
        }
      ],
      "payable": false,
      "stateMutability": "view",
      "type": "function",
      "signature": "0x108329f8"
    },
    {
      "constant": false,
      "inputs": [
        {
          "name": "Des",
          "type": "bytes32"
        },
        {
          "name": "FN",
          "type": "bytes32"
        },
        {
          "name": "Loc",
          "type": "bytes32"
        },
        {
          "name": "Quant",
          "type": "uint256"
        },
        {
          "name": "Shpr",
          "type": "address"
        },
        {
          "name": "Rcvr",
          "type": "address"
        }
      ],
      "name": "createRawPackage",
      "outputs": [],
      "payable": false,
      "stateMutability": "nonpayable",
      "type": "function",
      "signature": "0xd40da967"
    },
    {
      "constant": true,
      "inputs": [],
      "name": "getPackagesCountS",
      "outputs": [
        {
          "name": "count",
          "type": "uint256"
        }
      ],
      "payable": false,
      "stateMutability": "view",
      "type": "function",
      "signature": "0x2becfd04"
    },
    {
      "constant": true,
      "inputs": [
        {
          "name": "index",
          "type": "uint256"
        }
      ],
      "name": "getPackageIdByIndexS",
      "outputs": [
        {
          "name": "packageID",
          "type": "address"
        }
      ],
      "payable": false,
      "stateMutability": "view",
      "type": "function",
      "signature": "0x5e33cea4"
    },
    {
      "constant": true,
      "inputs": [],
      "name": "transportCount",
      "outputs": [
        {
          "name": "count",
          "type": "uint256"
        }
      ],
      "payable": false,
      "stateMutability": "view",
      "type": "function",
      "signature": "0xb13c499f"
    },
    {
      "constant": true,
      "inputs": [
        {
          "name": "index",
          "type": "uint256"
        }
      ],
      "name": "getTransportBatchIdByIndex",
      "outputs": [
        {
          "name": "",
          "type": "address"
        },
        {
          "name": "",
          "type": "uint256"
        }
      ],
      "payable": false,
      "stateMutability": "view",
      "type": "function",
      "signature": "0xd60881db"
    },
    {
      "constant": false,
      "inputs": [
        {
          "name": "pid",
          "type": "address"
        },
        {
          "name": "transportertype",
          "type": "uint256"
        },
        {
          "name": "cid",
          "type": "address"
        }
      ],
      "name": "loadConsingment",
      "outputs": [],
      "payable": false,
      "stateMutability": "nonpayable",
      "type": "function",
      "signature": "0x73f08eb3"
    },
    {
      "constant": false,
      "inputs": [
        {
          "name": "pid",
          "type": "address"
        }
      ],
      "name": "rawPackageReceived",
      "outputs": [],
      "payable": false,
      "stateMutability": "nonpayable",
      "type": "function",
      "signature": "0xbc8c5b1c"
    },
    {
      "constant": true,
      "inputs": [],
      "name": "getPackagesCountM",
      "outputs": [
        {
          "name": "count",
          "type": "uint256"
        }
      ],
      "payable": false,
      "stateMutability": "view",
      "type": "function",
      "signature": "0x9fb3a903"
    },
    {
      "constant": true,
      "inputs": [
        {
          "name": "index",
          "type": "uint256"
        }
      ],
      "name": "getPackageIDByIndexM",
      "outputs": [
        {
          "name": "BatchID",
          "type": "address"
        },
        {
          "name": "UsedQuantity",
          "type": "uint256"
        }
      ],
      "payable": false,
      "stateMutability": "view",
      "type": "function",
      "signature": "0x0bcc7568"
    },
    {
      "constant": false,
      "inputs": [
        {
          "name": "PackageID",
          "type": "address[]"
        },
        {
          "name": "Quantity",
          "type": "uint256[]"
        }
      ],
      "name": "useRawPackage",
      "outputs": [],
      "payable": false,
      "stateMutability": "nonpayable",
      "type": "function",
      "signature": "0xca7f6566"
    },
    {
      "constant": true,
      "inputs": [
        {
          "name": "PackageID",
          "type": "address"
        }
      ],
      "name": "getRawPackageQunatity",
      "outputs": [
        {
          "name": "",
          "type": "uint256"
        },
        {
          "name": "",
          "type": "uint256"
        }
      ],
      "payable": false,
      "stateMutability": "view",
      "type": "function",
      "signature": "0x331a1b99"
    },
    {
      "constant": false,
      "inputs": [
        {
          "name": "Des",
          "type": "bytes32"
        },
        {
          "name": "RM",
          "type": "bytes32"
        },
        {
          "name": "Quant",
          "type": "uint256"
        },
        {
          "name": "Shpr",
          "type": "address"
        },
        {
          "name": "Rcvr",
          "type": "address"
        },
        {
          "name": "RcvrType",
          "type": "uint256"
        }
      ],
      "name": "manufacturMedicine",
      "outputs": [],
      "payable": false,
      "stateMutability": "nonpayable",
      "type": "function",
      "signature": "0x2200d243"
    },
    {
      "constant": true,
      "inputs": [],
      "name": "getBatchesCountM",
      "outputs": [
        {
          "name": "count",
          "type": "uint256"
        }
      ],
      "payable": false,
      "stateMutability": "view",
      "type": "function",
      "signature": "0x3d66f86d"
    },
    {
      "constant": true,
      "inputs": [
        {
          "name": "index",
          "type": "uint256"
        }
      ],
      "name": "getBatchIdByIndexM",
      "outputs": [
        {
          "name": "packageID",
          "type": "address"
        }
      ],
      "payable": false,
      "stateMutability": "view",
      "type": "function",
      "signature": "0x986c9139"
    },
    {
      "constant": false,
      "inputs": [
        {
          "name": "batchid",
          "type": "address"
        },
        {
          "name": "cid",
          "type": "address"
        }
      ],
      "name": "MedicineReceived",
      "outputs": [],
      "payable": false,
      "stateMutability": "nonpayable",
      "type": "function",
      "signature": "0xcf6f040b"
    },
    {
      "constant": false,
      "inputs": [
        {
          "name": "BatchID",
          "type": "address"
        },
        {
          "name": "Shipper",
          "type": "address"
        },
        {
          "name": "Receiver",
          "type": "address"
        }
      ],
      "name": "transferMedicineWtoD",
      "outputs": [],
      "payable": false,
      "stateMutability": "nonpayable",
      "type": "function",
      "signature": "0xf06822d8"
    },
    {
      "constant": true,
      "inputs": [],
      "name": "getBatchesCountWD",
      "outputs": [
        {
          "name": "count",
          "type": "uint256"
        }
      ],
      "payable": false,
      "stateMutability": "view",
      "type": "function",
      "signature": "0x9f696b35"
    },
    {
      "constant": true,
      "inputs": [
        {
          "name": "index",
          "type": "uint256"
        }
      ],
      "name": "getBatchIdByIndexWD",
      "outputs": [
        {
          "name": "packageID",
          "type": "address"
        }
      ],
      "payable": false,
      "stateMutability": "view",
      "type": "function",
      "signature": "0x9af035a3"
    },
    {
      "constant": true,
      "inputs": [
        {
          "name": "BatchID",
          "type": "address"
        }
      ],
      "name": "getSubContractWD",
      "outputs": [
        {
          "name": "SubContractWD",
          "type": "address"
        }
      ],
      "payable": false,
      "stateMutability": "view",
      "type": "function",
      "signature": "0x34759016"
    },
    {
      "constant": false,
      "inputs": [
        {
          "name": "BatchID",
          "type": "address"
        },
        {
          "name": "Shipper",
          "type": "address"
        },
        {
          "name": "Receiver",
          "type": "address"
        }
      ],
      "name": "transferMedicineDtoP",
      "outputs": [],
      "payable": false,
      "stateMutability": "nonpayable",
      "type": "function",
      "signature": "0xbf8ee84b"
    },
    {
      "constant": true,
      "inputs": [],
      "name": "getBatchesCountDP",
      "outputs": [
        {
          "name": "count",
          "type": "uint256"
        }
      ],
      "payable": false,
      "stateMutability": "view",
      "type": "function",
      "signature": "0x884b9c52"
    },
    {
      "constant": true,
      "inputs": [
        {
          "name": "index",
          "type": "uint256"
        }
      ],
      "name": "getBatchIdByIndexDP",
      "outputs": [
        {
          "name": "packageID",
          "type": "address"
        }
      ],
      "payable": false,
      "stateMutability": "view",
      "type": "function",
      "signature": "0xf05bcd4e"
    },
    {
      "constant": true,
      "inputs": [
        {
          "name": "BatchID",
          "type": "address"
        }
      ],
      "name": "getSubContractDP",
      "outputs": [
        {
          "name": "SubContractDP",
          "type": "address"
        }
      ],
      "payable": false,
      "stateMutability": "view",
      "type": "function",
      "signature": "0xb6c022f5"
    },
    {
      "constant": false,
      "inputs": [
        {
          "name": "batchid",
          "type": "address"
        },
        {
          "name": "cid",
          "type": "address"
        }
      ],
      "name": "MedicineRecievedAtPharma",
      "outputs": [],
      "payable": false,
      "stateMutability": "nonpayable",
      "type": "function",
      "signature": "0xe2dff3a3"
    },
    {
      "constant": false,
      "inputs": [
        {
          "name": "BatchID",
          "type": "address"
        },
        {
          "name": "Status",
          "type": "uint256"
        }
      ],
      "name": "updateSaleStatus",
      "outputs": [],
      "payable": false,
      "stateMutability": "nonpayable",
      "type": "function",
      "signature": "0xeae3c207"
    },
    {
      "constant": true,
      "inputs": [
        {
          "name": "BatchID",
          "type": "address"
        }
      ],
      "name": "salesInfo",
      "outputs": [
        {
          "name": "Status",
          "type": "uint256"
        }
      ],
      "payable": false,
      "stateMutability": "view",
      "type": "function",
      "signature": "0xbb8ee1c5"
    },
    {
      "constant": true,
      "inputs": [],
      "name": "getBatchesCountP",
      "outputs": [
        {
          "name": "count",
          "type": "uint256"
        }
      ],
      "payable": false,
      "stateMutability": "view",
      "type": "function",
      "signature": "0xe581762e"
    },
    {
      "constant": true,
      "inputs": [
        {
          "name": "index",
          "type": "uint256"
        }
      ],
      "name": "getBatchIdByIndexP",
      "outputs": [
        {
          "name": "BatchID",
          "type": "address"
        }
      ],
      "payable": false,
      "stateMutability": "view",
      "type": "function",
      "signature": "0xe5bff92a"
    }
  ],
  "bytecode": "0x608060405234801561001057600080fd5b5060008054600160a060020a03191633179055614f62806100326000396000f3fe608060405260043610620001bb5760e060020a60003504630bcc75688114620001c0578063108329f814620002115780632200d243146200028b5780632becfd0414620002e6578063331a1b991462000310578063347590161462000360578063373d5c1814620003b35780633d66f86d14620003f05780635e33cea414620004085780636386c1c7146200043657806373f08eb3146200046d57806380e52e3f14620004b4578063884b9c5214620004eb578063923f645a1462000503578063986c9139146200054c5780639af035a3146200057a5780639f696b3514620005a85780639fb3a90314620005c0578063a4a1e26314620005d8578063b13c499f14620005f0578063b4a99a4e1462000608578063b6c022f51462000620578063bb8ee1c51462000657578063bc8c5b1c146200068e578063bf8ee84b14620006c5578063ca7f6566146200070e578063cf6f040b146200084c578063d40da967146200088b578063d60881db14620008e2578063e2dff3a31462000910578063e581762e146200094f578063e5bff92a1462000967578063eae3c2071462000995578063f05bcd4e14620009d2578063f06822d81462000a00575b600080fd5b348015620001cd57600080fd5b50620001ee60048036036020811015620001e657600080fd5b503562000a49565b60408051600160a060020a03909316835260208301919091528051918290030190f35b3480156200021e57600080fd5b506200023f600480360360208110156200023757600080fd5b503562000b55565b6040518085815260200184815260200183600160a060020a0316600160a060020a031681526020018260078111156200027457fe5b60ff16815260200194505050505060405180910390f35b3480156200029857600080fd5b50620002e4600480360360c0811015620002b157600080fd5b50803590602081013590604081013590600160a060020a03606082013581169160808101359091169060a0013562000b99565b005b348015620002f357600080fd5b50620002fe62000e52565b60408051918252519081900360200190f35b3480156200031d57600080fd5b5062000347600480360360208110156200033657600080fd5b5035600160a060020a031662000f0f565b6040805192835260208301919091528051918290030190f35b3480156200036d57600080fd5b5062000397600480360360208110156200038657600080fd5b5035600160a060020a031662001024565b60408051600160a060020a039092168252519081900360200190f35b348015620003c057600080fd5b50620002e460048036036040811015620003d957600080fd5b50600160a060020a03813516906020013562001042565b348015620003fd57600080fd5b50620002fe62001224565b3480156200041557600080fd5b5062000397600480360360208110156200042e57600080fd5b5035620012e1565b3480156200044357600080fd5b506200023f600480360360208110156200045c57600080fd5b5035600160a060020a0316620013c1565b3480156200047a57600080fd5b50620002e4600480360360608110156200049357600080fd5b50600160a060020a03813581169160208101359160409091013516620013fd565b348015620004c157600080fd5b50620002e460048036036020811015620004da57600080fd5b5035600160a060020a0316620016fb565b348015620004f857600080fd5b50620002fe620018cf565b3480156200051057600080fd5b50620002e4600480360360808110156200052957600080fd5b50600160a060020a0381351690602081013590604081013590606001356200198c565b3480156200055957600080fd5b5062000397600480360360208110156200057257600080fd5b503562001bb8565b3480156200058757600080fd5b506200039760048036036020811015620005a057600080fd5b503562001c7d565b348015620005b557600080fd5b50620002fe62001d42565b348015620005cd57600080fd5b50620002fe62001dff565b348015620005e557600080fd5b50620002fe62001e9a565b348015620005fd57600080fd5b50620002fe62001ea0565b3480156200061557600080fd5b506200039762001eb3565b3480156200062d57600080fd5b5062000397600480360360208110156200064657600080fd5b5035600160a060020a031662001ec2565b3480156200066457600080fd5b50620002fe600480360360208110156200067d57600080fd5b5035600160a060020a031662001ee0565b3480156200069b57600080fd5b50620002e460048036036020811015620006b457600080fd5b5035600160a060020a031662001f0e565b348015620006d257600080fd5b50620002e460048036036060811015620006eb57600080fd5b50600160a060020a0381358116916020810135821691604090910135166200204d565b3480156200071b57600080fd5b50620002e4600480360360408110156200073457600080fd5b8101906020810181356401000000008111156200075057600080fd5b8201836020820111156200076357600080fd5b803590602001918460208302840111640100000000831117156200078657600080fd5b9190808060200260200160405190810160405280939291908181526020018383602002808284376000920191909152509295949360208101935035915050640100000000811115620007d757600080fd5b820183602082011115620007ea57600080fd5b803590602001918460208302840111640100000000831117156200080d57600080fd5b919080806020026020016040519081016040528093929190818152602001838360200280828437600092019190915250929550620022a8945050505050565b3480156200085957600080fd5b50620002e4600480360360408110156200087257600080fd5b50600160a060020a0381358116916020013516620024e4565b3480156200089857600080fd5b50620002e4600480360360c0811015620008b157600080fd5b50803590602081013590604081013590606081013590600160a060020a03608082013581169160a0013516620027ed565b348015620008ef57600080fd5b50620001ee600480360360208110156200090857600080fd5b5035620029cc565b3480156200091d57600080fd5b50620002e4600480360360408110156200093657600080fd5b50600160a060020a038135811691602001351662002ae6565b3480156200095c57600080fd5b50620002fe62002c8a565b3480156200097457600080fd5b5062000397600480360360208110156200098d57600080fd5b503562002d6d565b348015620009a257600080fd5b50620002e460048036036040811015620009bb57600080fd5b50600160a060020a03813516906020013562002e58565b348015620009df57600080fd5b506200039760048036036020811015620009f857600080fd5b503562003098565b34801562000a0d57600080fd5b50620002e46004803603606081101562000a2657600080fd5b50600160a060020a0381358116916020810135821691604090910135166200315d565b60008060033360009081526001602052604090206002015460a060020a900460ff16600781111562000a7757fe5b1462000ad1576040805160e560020a62461bcd028152602060048201526028602482015260008051602062004ef7833981519152604482015260008051602062004f17833981519152606482015290519081900360840190fd5b33600090815260056020526040902080548490811062000aed57fe5b60009182526020808320909101543383526005909152604082208054600160a060020a03909216926006929091908790811062000b2657fe5b6000918252602080832090910154600160a060020a031683528201929092526040019020549092509050915091565b60008060008062000b8a60028681548110151562000b6f57fe5b600091825260209091200154600160a060020a0316620013c1565b93509350935093509193509193565b60033360009081526001602052604090206002015460a060020a900460ff16600781111562000bc457fe5b1462000c1e576040805160e560020a62461bcd028152602060048201526028602482015260008051602062004ef7833981519152604482015260008051602062004f17833981519152606482015290519081900360840190fd5b80151562000c76576040805160e560020a62461bcd02815260206004820152601c60248201527f52656365697665722054797065206d75737420626520646566696e6500000000604482015290519081900360640190fd5b60003387878787878762000c89620033b7565b600160a060020a03978816815260208101969096526040808701959095526060860193909352908516608085015290931660a083015260c082019290925290519081900360e001906000f08015801562000ce7573d6000803e3d6000fd5b50336000908152600760209081526040822080546001808201835591845291909220018054600160a060020a031916600160a060020a03841617905590915082141562000d9457600160a060020a0384811660009081526004602090815260408083208151808301909252858516825260018284018181528254808301845592865293909420915160029091029091018054600160a060020a031916919094161783555191015562000e02565b816002141562000e0257600160a060020a03848116600090815260046020908152604080832081518083019092528585168252600282840181815282546001808201855593875294909520925193029091018054600160a060020a0319169290941691909117835590519101555b60408051600160a060020a0386811682529151828616923392908516917fa464e8d0d73596ec44ad2f56ca60a8fc4ef75e1b7b0b3f46fe1e073fb5da11b59181900360200190a450505050505050565b600060013360009081526001602052604090206002015460a060020a900460ff16600781111562000e7f57fe5b1462000efb576040805160e560020a62461bcd02815260206004820152602560248201527f4f6e6c7920537570706c6965722043616e2063616c6c20746869732066756e6360448201527f74696f6e20000000000000000000000000000000000000000000000000000000606482015290519081900360840190fd5b503360009081526003602052604090205490565b60008060033360009081526001602052604090206002015460a060020a900460ff16600781111562000f3d57fe5b1462000f97576040805160e560020a62461bcd028152602060048201526028602482015260008051602062004ef7833981519152604482015260008051602062004f17833981519152606482015290519081900360840190fd5b82600160a060020a03166377651a6e6040518163ffffffff1660e060020a02815260040160206040518083038186803b15801562000fd457600080fd5b505afa15801562000fe9573d6000803e3d6000fd5b505050506040513d60208110156200100057600080fd5b5051600160a060020a03939093166000908152600660205260409020549293915050565b600160a060020a039081166000908152600a60205260409020541690565b600054600160a060020a03163314620010cb576040805160e560020a62461bcd02815260206004820152602260248201527f4f6e6c79206f776e65722063616e2063616c6c20746869732066756e6374696f60448201527f6e2e000000000000000000000000000000000000000000000000000000000000606482015290519081900360840190fd5b6000600160a060020a03831660009081526001602052604090206002015460a060020a900460ff166007811115620010ff57fe5b141562001156576040805160e560020a62461bcd02815260206004820152601360248201527f55736572206e6f74207265676973746572656400000000000000000000000000604482015290519081900360640190fd5b8060078111156200116357fe5b600160a060020a0383166000908152600160205260409020600201805474ff0000000000000000000000000000000000000000191660a060020a836007811115620011aa57fe5b0217905550600160a060020a038216600081815260016020526040902080546002909101547f4c8b3f61ed94356876db0fec52d6a7c6aeaf772c4e0ca8f6da74331cc0f687cc919060a060020a900460ff1660078111156200120857fe5b6040805192835260208301919091528051918290030190a25050565b600060033360009081526001602052604090206002015460a060020a900460ff1660078111156200125157fe5b14620012cd576040805160e560020a62461bcd02815260206004820152602960248201527f4f6e6c79204d616e7566616374757265722043616e2063616c6c20746869732060448201527f66756e6374696f6e2e0000000000000000000000000000000000000000000000606482015290519081900360840190fd5b503360009081526007602052604090205490565b600060013360009081526001602052604090206002015460a060020a900460ff1660078111156200130e57fe5b146200138a576040805160e560020a62461bcd02815260206004820152602560248201527f4f6e6c7920537570706c6965722043616e2063616c6c20746869732066756e6360448201527f74696f6e20000000000000000000000000000000000000000000000000000000606482015290519081900360840190fd5b336000908152600360205260409020805483908110620013a657fe5b600091825260209091200154600160a060020a031692915050565b600160a060020a0390811660009081526001602081905260409091208054918101546002909101549193909282169160a060020a900460ff1690565b60023360009081526001602052604090206002015460a060020a900460ff1660078111156200142857fe5b14620014a4576040805160e560020a62461bcd02815260206004820152602760248201527f4f6e6c79205472616e73706f727465722063616e2063616c6c2074686973206660448201527f756e6374696f6e00000000000000000000000000000000000000000000000000606482015290519081900360840190fd5b60008211620014fd576040805160e560020a62461bcd02815260206004820152601f60248201527f5472616e73706f727465722054797065206d75737420626520646566696e6500604482015290519081900360640190fd5b81600114156200158757604080517f638e9a3d0000000000000000000000000000000000000000000000000000000081523360048201529051600160a060020a0385169163638e9a3d91602480830192600092919082900301818387803b1580156200156857600080fd5b505af11580156200157d573d6000803e3d6000fd5b50505050620016f6565b8160021415620015f257604080517f638e9a3d0000000000000000000000000000000000000000000000000000000081523360048201529051600160a060020a0385169163638e9a3d91602480830192600092919082900301818387803b1580156200156857600080fd5b81600314156200166757604080517f443c28d8000000000000000000000000000000000000000000000000000000008152600160a060020a03858116600483015233602483015291519183169163443c28d89160448082019260009290919082900301818387803b1580156200156857600080fd5b8160041415620016f657604080517fd39ff0e7000000000000000000000000000000000000000000000000000000008152600160a060020a03858116600483015233602483015291519183169163d39ff0e79160448082019260009290919082900301818387803b158015620016dc57600080fd5b505af1158015620016f1573d6000803e3d6000fd5b505050505b505050565b600054600160a060020a0316331462001784576040805160e560020a62461bcd02815260206004820152602260248201527f4f6e6c79206f776e65722063616e2063616c6c20746869732066756e6374696f60448201527f6e2e000000000000000000000000000000000000000000000000000000000000606482015290519081900360840190fd5b6000600160a060020a03821660009081526001602052604090206002015460a060020a900460ff166007811115620017b857fe5b14156200180f576040805160e560020a62461bcd02815260206004820152601360248201527f55736572206e6f74207265676973746572656400000000000000000000000000604482015290519081900360640190fd5b600160a060020a038116600081815260016020526040902080546002909101547fb5f04dfc1ccfefb366c4dc7a23670362462e0a415afb89d8cba1fb657e264c96919060a060020a900460ff1660078111156200186857fe5b6040805192835260208301919091528051918290030190a2600160a060020a03166000908152600160205260409020600201805474ff0000000000000000000000000000000000000000191674070000000000000000000000000000000000000000179055565b600060053360009081526001602052604090206002015460a060020a900460ff166007811115620018fc57fe5b1462001978576040805160e560020a62461bcd02815260206004820152602860248201527f4f6e6c792044697374726962757465722043616e2063616c6c2074686973206660448201527f756e6374696f6e2e000000000000000000000000000000000000000000000000606482015290519081900360840190fd5b50336000908152600c602052604090205490565b600054600160a060020a0316331462001a15576040805160e560020a62461bcd02815260206004820152602260248201527f4f6e6c79206f776e65722063616e2063616c6c20746869732066756e6374696f60448201527f6e2e000000000000000000000000000000000000000000000000000000000000606482015290519081900360840190fd5b6000600160a060020a03851660009081526001602052604090206002015460a060020a900460ff16600781111562001a4957fe5b1462001a9f576040805160e560020a62461bcd02815260206004820152601760248201527f5573657220416c72656164792072656769737465726564000000000000000000604482015290519081900360640190fd5b600160a060020a03841660008181526001602081905260409091208581559081018490556002018054600160a060020a031916909117905580600781111562001ae457fe5b600160a060020a0385166000908152600160205260409020600201805474ff0000000000000000000000000000000000000000191660a060020a83600781111562001b2b57fe5b0217905550600280546001810182556000919091527f405787fa12a823e0f2b7631cc41b3ba8828b3321ca811111fa75cd3aa3bb5ace018054600160a060020a038616600160a060020a031990911681179091556040805185815290517f33a7170f028b1e4f5ba321064a00ed820856a920c7f9c6636fbcf385427b1b0f9181900360200190a250505050565b600060033360009081526001602052604090206002015460a060020a900460ff16600781111562001be557fe5b1462001c61576040805160e560020a62461bcd02815260206004820152602960248201527f4f6e6c79204d616e7566616374757265722043616e2063616c6c20746869732060448201527f66756e6374696f6e2e0000000000000000000000000000000000000000000000606482015290519081900360840190fd5b336000908152600760205260409020805483908110620013a657fe5b600060043360009081526001602052604090206002015460a060020a900460ff16600781111562001caa57fe5b1462001d26576040805160e560020a62461bcd02815260206004820152602760248201527f4f6e6c792057686f6c6573616c65722043616e2063616c6c207468697320667560448201527f6e6374696f6e2e00000000000000000000000000000000000000000000000000606482015290519081900360840190fd5b336000908152600960205260409020805483908110620013a657fe5b600060043360009081526001602052604090206002015460a060020a900460ff16600781111562001d6f57fe5b1462001deb576040805160e560020a62461bcd02815260206004820152602760248201527f4f6e6c792057686f6c6573616c65722043616e2063616c6c207468697320667560448201527f6e6374696f6e2e00000000000000000000000000000000000000000000000000606482015290519081900360840190fd5b503360009081526009602052604090205490565b600060033360009081526001602052604090206002015460a060020a900460ff16600781111562001e2c57fe5b1462001e86576040805160e560020a62461bcd028152602060048201526028602482015260008051602062004ef7833981519152604482015260008051602062004f17833981519152606482015290519081900360840190fd5b503360009081526005602052604090205490565b60025490565b3360009081526004602052604090205490565b600054600160a060020a031681565b600160a060020a039081166000908152600d60205260409020541690565b600160a060020a0381166000908152600f602052604081205460ff16600481111562001f0857fe5b92915050565b60033360009081526001602052604090206002015460a060020a900460ff16600781111562001f3957fe5b1462001f93576040805160e560020a62461bcd028152602060048201526028602482015260008051602062004ef7833981519152604482015260008051602062004f17833981519152606482015290519081900360840190fd5b604080517f52b999680000000000000000000000000000000000000000000000000000000081523360048201529051600160a060020a038316916352b9996891602480830192600092919082900301818387803b15801562001ff457600080fd5b505af115801562002009573d6000803e3d6000fd5b5050336000908152600560209081526040822080546001810182559083529120018054600160a060020a031916600160a060020a0394909416939093179092555050565b60053360009081526001602052604090206002015460a060020a900460ff1660078111156200207857fe5b1480156200210a575082600160a060020a03166301a9a23e6040518163ffffffff1660e060020a02815260040160606040518083038186803b158015620020be57600080fd5b505afa158015620020d3573d6000803e3d6000fd5b505050506040513d601f19601f820116820180604052506060811015620020f957600080fd5b5060200151600160a060020a031633145b1515620021ad576040805160e560020a62461bcd02815260206004820152604360248201527f4f6e6c79204469737472696275746572206f722063757272656e74206f776e6560448201527f72206f66207061636b6167652063616e2063616c6c20746869732066756e637460648201527f696f6e0000000000000000000000000000000000000000000000000000000000608482015290519081900360a40190fd5b600083338484620021bd620033c8565b600160a060020a039485168152928416602084015290831660408084019190915292166060820152905190819003608001906000f08015801562002205573d6000803e3d6000fd5b50336000908152600c60209081526040808320805460018181018355918552838520018054600160a060020a03968716600160a060020a0319918216811790925598861685526004808552838620845180860186528381528087019283528154808601835591885286882090516002909202018054918916918c169190911781559051920191909155979093168252600d90522080549093169093179091555050565b60033360009081526001602052604090206002015460a060020a900460ff166007811115620022d357fe5b146200232d576040805160e560020a62461bcd028152602060048201526028602482015260008051602062004ef7833981519152604482015260008051602062004f17833981519152606482015290519081900360840190fd5b8060008151811015156200233d57fe5b90602001906020020151600660008460008151811015156200235b57fe5b6020908102909101810151600160a060020a03168252810191909152604001600020805490910190558051819060019081106200239457fe5b9060200190602002015160066000846001815181101515620023b257fe5b6020908102909101810151600160a060020a0316825281019190915260400160002080549091019055805181906002908110620023eb57fe5b90602001906020020151600660008460028151811015156200240957fe5b6020908102909101810151600160a060020a03168252810191909152604001600020805490910190558051819060039081106200244257fe5b90602001906020020151600660008460038151811015156200246057fe5b6020908102909101810151600160a060020a03168252810191909152604001600020805490910190558051819060049081106200249957fe5b9060200190602002015160066000846004815181101515620024b757fe5b6020908102909101810151600160a060020a03168252810191909152604001600020805490910190555050565b60043360009081526001602052604090206002015460a060020a900460ff1660078111156200250f57fe5b148062002544575060053360009081526001602052604090206002015460a060020a900460ff1660078111156200254257fe5b145b1515620025c1576040805160e560020a62461bcd02815260206004820152603660248201527f4f6e6c792057686f6c6573616c657220616e642044697374726962757465722060448201527f63616e2063616c6c20746869732066756e6374696f6e00000000000000000000606482015290519081900360840190fd5b604080517f52b999680000000000000000000000000000000000000000000000000000000081523360048201529051600091600160a060020a038516916352b999689160248082019260209290919082900301818787803b1580156200262657600080fd5b505af11580156200263b573d6000803e3d6000fd5b505050506040513d60208110156200265257600080fd5b5051905060018114156200269e57336000908152600860209081526040822080546001810182559083529120018054600160a060020a031916600160a060020a038516179055620016f6565b8060021415620016f65733600090815260086020908152604080832080546001810182559084529183209091018054600160a060020a031916600160a060020a03871690811790915581517f01a9a23e000000000000000000000000000000000000000000000000000000008152915190916301a9a23e916004808301926060929190829003018186803b1580156200273657600080fd5b505afa1580156200274b573d6000803e3d6000fd5b505050506040513d601f19601f8201168201806040525060608110156200277157600080fd5b5051600160a060020a031614620016f657604080517ff4c07229000000000000000000000000000000000000000000000000000000008152600160a060020a03858116600483015233602483015291519184169163f4c072299160448082019260009290919082900301818387803b158015620016dc57600080fd5b60013360009081526001602052604090206002015460a060020a900460ff1660078111156200281857fe5b1462002894576040805160e560020a62461bcd02815260206004820152602560248201527f4f6e6c7920537570706c6965722043616e2063616c6c20746869732066756e6360448201527f74696f6e20000000000000000000000000000000000000000000000000000000606482015290519081900360840190fd5b600033878787878787620028a7620033d9565b600160a060020a039788168152602081019690965260408087019590955260608601939093526080850191909152841660a084015290921660c082015290519081900360e001906000f08015801562002904573d6000803e3d6000fd5b50336000818152600360209081526040808320805460018181018355918552838520018054600160a060020a03808916600160a060020a031992831681179093558b811680885260048752858820865180880188528581528089018a815282548089018455928b52998990209051600290920201805491841691909416178355965191909301558251948552915195965087169490927f9dbe7d9fdd28b9b1c2ffe79a40f7beff124537ed0d7a47555d009e0271fc613392908290030190a450505050505050565b60008060023360009081526001602052604090206002015460a060020a900460ff166007811115620029fa57fe5b1462002a76576040805160e560020a62461bcd02815260206004820152602860248201527f4f6e6c79205472616e73706f727465722043616e2063616c6c2074686973206660448201527f756e6374696f6e20000000000000000000000000000000000000000000000000606482015290519081900360840190fd5b33600090815260046020526040902080548490811062002a9257fe5b60009182526020808320600290920290910154338352600490915260409091208054600160a060020a03909216918590811062002acb57fe5b90600052602060002090600202016001015491509150915091565b60063360009081526001602052604090206002015460a060020a900460ff16600781111562002b1157fe5b1462002b8d576040805160e560020a62461bcd02815260206004820152602360248201527f4f6e6c7920506861726d612043616e2063616c6c20746869732066756e63746960448201527f6f6e2e0000000000000000000000000000000000000000000000000000000000606482015290519081900360840190fd5b604080517f32a60e00000000000000000000000000000000000000000000000000000000008152600160a060020a0384811660048301523360248301529151918316916332a60e009160448082019260009290919082900301818387803b15801562002bf857600080fd5b505af115801562002c0d573d6000803e3d6000fd5b5050336000908152600e60209081526040822080546001808201835591845291909220018054600160a060020a031916600160a060020a038716179055915062002c549050565b600160a060020a0383166000908152600f60205260409020805460ff1916600183600481111562002c8157fe5b02179055505050565b600060063360009081526001602052604090206002015460a060020a900460ff16600781111562002cb757fe5b1462002d59576040805160e560020a62461bcd02815260206004820152604260248201527f4f6e6c792057686f6c6573616c6572206f722063757272656e74206f776e657260448201527f206f66207061636b6167652063616e2063616c6c20746869732066756e63746960648201527f6f6e000000000000000000000000000000000000000000000000000000000000608482015290519081900360a40190fd5b50336000908152600e602052604090205490565b600060063360009081526001602052604090206002015460a060020a900460ff16600781111562002d9a57fe5b1462002e3c576040805160e560020a62461bcd02815260206004820152604260248201527f4f6e6c792057686f6c6573616c6572206f722063757272656e74206f776e657260448201527f206f66207061636b6167652063616e2063616c6c20746869732066756e63746960648201527f6f6e000000000000000000000000000000000000000000000000000000000000608482015290519081900360a40190fd5b336000908152600e60205260409020805483908110620013a657fe5b60063360009081526001602052604090206002015460a060020a900460ff16600781111562002e8357fe5b14801562002f15575081600160a060020a03166301a9a23e6040518163ffffffff1660e060020a02815260040160606040518083038186803b15801562002ec957600080fd5b505afa15801562002ede573d6000803e3d6000fd5b505050506040513d601f19601f82011682018060405250606081101562002f0457600080fd5b5060400151600160a060020a031633145b151562002f92576040805160e560020a62461bcd02815260206004820152603e60248201527f4f6e6c7920506861726d61206f722063757272656e74206f776e6572206f662060448201527f7061636b6167652063616e2063616c6c20746869732066756e6374696f6e0000606482015290519081900360840190fd5b6001600160a060020a0383166000908152600f602052604090205460ff16600481111562002fbc57fe5b1462003012576040805160e560020a62461bcd02815260206004820152601a60248201527f4d65646963696e65204d75737420626520617420506861726d61000000000000604482015290519081900360640190fd5b8060048111156200301f57fe5b600160a060020a0383166000908152600f60205260409020805460ff191660018360048111156200304c57fe5b021790555060408051600160a060020a038416815260208101839052815133927f778762ccb04f5a8838ed8914b13eb6f118224696959cbfa0cfea54133f76a7d5928290030190a25050565b600060053360009081526001602052604090206002015460a060020a900460ff166007811115620030c557fe5b1462003141576040805160e560020a62461bcd02815260206004820152602860248201527f4f6e6c792044697374726962757465722043616e2063616c6c2074686973206660448201527f756e6374696f6e2e000000000000000000000000000000000000000000000000606482015290519081900360840190fd5b336000908152600c60205260409020805483908110620013a657fe5b60043360009081526001602052604090206002015460a060020a900460ff1660078111156200318857fe5b14801562003217575082600160a060020a03166301a9a23e6040518163ffffffff1660e060020a02815260040160606040518083038186803b158015620031ce57600080fd5b505afa158015620031e3573d6000803e3d6000fd5b505050506040513d601f19601f8201168201806040525060608110156200320957600080fd5b5051600160a060020a031633145b1515620032ba576040805160e560020a62461bcd02815260206004820152604260248201527f4f6e6c792057686f6c6573616c6572206f722063757272656e74206f776e657260448201527f206f66207061636b6167652063616e2063616c6c20746869732066756e63746960648201527f6f6e000000000000000000000000000000000000000000000000000000000000608482015290519081900360a40190fd5b600083338484620032ca620033ea565b600160a060020a039485168152928416602084015290831660408084019190915292166060820152905190819003608001906000f08015801562003312573d6000803e3d6000fd5b50336000908152600960209081526040808320805460018181018355918552838520018054600160a060020a03968716600160a060020a0319918216811790925598861685526004845282852083518085018552828152600381870190815282548086018455928852868820915160029093029091018054928916928c1692909217825551920191909155979093168252600a90522080549093169093179091555050565b604051610b8680620033fc83390190565b6040516104bb8062003f8283390190565b6040516105ff806200443d83390190565b6040516104bb8062004a3c8339019056fe608060405234801561001057600080fd5b5060405160e080610b86833981018060405260e081101561003057600080fd5b508051602082015160408301516060840151608085015160a086015160c09096015160008054600160a060020a0319908116600160a060020a03808a1691821790935560058054831690911790556001878155600287905560038690556004805490921692851692909217905595969495939492939192918114156100cf5760068054600160a060020a031916600160a060020a0384161790556100f4565b80600214156100f45760078054600160a060020a031916600160a060020a0384161790555b50505050505050610a7c8061010a6000396000f3fe608060405260043610610092577c0100000000000000000000000000000000000000000000000000000000600035046301a9a23e81146100975780634175699d146100e457806352b9996814610119578063638e9a3d1461015e578063952565cf14610191578063a19ffd60146101c4578063bd786835146101ff578063d2f3fcc71461023a578063e002c8a51461024f575b600080fd5b3480156100a357600080fd5b506100ac6102a0565b6040518082606080838360005b838110156100d15781810151838201526020016100b9565b5050505090500191505060405180910390f35b3480156100f057600080fd5b506101176004803603602081101561010757600080fd5b5035600160a060020a03166102db565b005b34801561012557600080fd5b5061014c6004803603602081101561013c57600080fd5b5035600160a060020a031661036a565b60408051918252519081900360200190f35b34801561016a57600080fd5b506101176004803603602081101561018157600080fd5b5035600160a060020a03166105d7565b34801561019d57600080fd5b50610117600480360360208110156101b457600080fd5b5035600160a060020a03166107a4565b3480156101d057600080fd5b50610117600480360360408110156101e757600080fd5b50600160a060020a0381358116916020013516610836565b34801561020b57600080fd5b506101176004803603604081101561022257600080fd5b50600160a060020a0381358116916020013516610914565b34801561024657600080fd5b5061014c6109ce565b34801561025b57600080fd5b506102646109ee565b60408051600160a060020a0396871681526020810195909552848101939093526060840191909152909216608082015290519081900360a00190f35b6102a8610a11565b5060408051606081018252600654600160a060020a03908116825260075481166020830152600854169181019190915290565b600854600160a060020a03828116911614610340576040805160e560020a62461bcd02815260206004820152601e60248201527f5468697320506861726d61206973206e6f74204173736f6369617465642e0000604482015290519081900360640190fd5b60065b6008805460a060020a60ff02191660a060020a83600681111561036257fe5b021790555050565b600654600090600160a060020a03838116911614806103965750600754600160a060020a038381169116145b1515610412576040805160e560020a62461bcd02815260206004820152603f60248201527f4f6e6c79204173736f63696174652057686f6c6573616c6572206f722044697360448201527f74727562757465722063616e2063616c6c20746869732066756e6374696f6e00606482015290519081900360840190fd5b60085460019060a060020a900460ff16600681111561042d57fe5b1015610483576040805160e560020a62461bcd02815260206004820152601960248201527f50726f64756374206e6f74207069636b65642075702079657400000000000000604482015290519081900360640190fd5b600654600160a060020a0383811691161480156104b75750600160085460a060020a900460ff1660068111156104b557fe5b145b1561052a576008805460a060020a60ff021916740300000000000000000000000000000000000000001790556006546004546040805160028152600360208201528151600160a060020a0394851694909316923092600080516020610a31833981519152928290030190a45060016105d2565b600754600160a060020a03838116911614801561055e5750600260085460a060020a900460ff16600681111561055c57fe5b145b156105d2576008805460a060020a60ff0219167404000000000000000000000000000000000000000017905560075460048054604080516003815260208101939093528051600160a060020a0394851694909216923092600080516020610a31833981519152929181900390910190a45060025b919050565b600454600160a060020a03828116911614610662576040805160e560020a62461bcd02815260206004820152602d60248201527f4f6e6c79204173736f636961746520536869707065722063616e2063616c6c2060448201527f746869732066756e6374696f6e00000000000000000000000000000000000000606482015290519081900360840190fd5b600060085460a060020a900460ff16600681111561067c57fe5b146106d1576040805160e560020a62461bcd02815260206004820152601c60248201527f5061636b616765206d75737420626520617420537570706c6965722e00000000604482015290519081900360640190fd5b600654600160a060020a03161561073b576008805460a060020a60ff02191660a060020a17905560065460045460408051600180825260208201528151600160a060020a0394851694909316923092600080516020610a31833981519152928290030190a46107a1565b6008805460a060020a60ff0219167402000000000000000000000000000000000000000017905560075460045460408051600180825260208201528151600160a060020a0394851694909316923092600080516020610a31833981519152928290030190a45b50565b600754600160a060020a0382811691161461082f576040805160e560020a62461bcd02815260206004820152602360248201527f54686973204469737472696275746572206973206e6f74204173736f6369617460448201527f65642e0000000000000000000000000000000000000000000000000000000000606482015290519081900360840190fd5b6004610343565b600754600160a060020a038281169116146108c1576040805160e560020a62461bcd02815260206004820152602360248201527f74686973204469737472696275746572206973206e6f74204173736f6369617460448201527f65642e0000000000000000000000000000000000000000000000000000000000606482015290519081900360840190fd5b6008805473ffffffffffffffffffffffffffffffffffffffff1916600160a060020a03841617905560055b6008805460a060020a60ff02191660a060020a83600681111561090b57fe5b02179055505050565b600654600160a060020a0382811691161461099f576040805160e560020a62461bcd02815260206004820152602260248201527f746869732057686f6c6573616c6572206973206e6f74204173736f636961746560448201527f642e000000000000000000000000000000000000000000000000000000000000606482015290519081900360840190fd5b6007805473ffffffffffffffffffffffffffffffffffffffff1916600160a060020a03841617905560026108ec565b60085460009060a060020a900460ff1660068111156109e957fe5b905090565b600554600154600254600354600454600160a060020a0394851694169091929394565b606060405190810160405280600390602082028038833950919291505056fe7e89c4b1a4e2b51aae84eb1f90e8a34cb792ece5ac5cb63db4830c891220b28da165627a7a7230582026ba5d74b83746ec20febaa3a0264b591a979e347271eea08aa5d7a1c301b6cd0029608060405234801561001057600080fd5b506040516080806104bb8339810180604052608081101561003057600080fd5b5080516020820151604083015160609093015160008054600160a060020a0319908116600160a060020a03948516908117835560018054831696861696909617909555600280548216909517909455600380548516958416959095179094556004805490931691161760a060020a60ff02191690556104069081906100b590396000f3fe608060405260043610610050577c0100000000000000000000000000000000000000000000000000000000600035046332a60e008114610055578063d2f3fcc714610092578063d39ff0e7146100b9575b600080fd5b34801561006157600080fd5b506100906004803603604081101561007857600080fd5b50600160a060020a03813581169160200135166100f4565b005b34801561009e57600080fd5b506100a7610262565b60408051918252519081900360200190f35b3480156100c557600080fd5b50610090600480360360408110156100dc57600080fd5b50600160a060020a0381358116916020013516610293565b600454600160a060020a0382811691161461019657604080517f08c379a000000000000000000000000000000000000000000000000000000000815260206004820152603060248201527f4f6e6c79204173736f6369617465642072656365697665722063616e2063616c60448201527f6c20746869732066756e6374696f6e2e00000000000000000000000000000000606482015290519081900360840190fd5b600480546002919074ff000000000000000000000000000000000000000019167401000000000000000000000000000000000000000083021790555081600160a060020a0316634175699d826040518263ffffffff167c01000000000000000000000000000000000000000000000000000000000281526004018082600160a060020a0316600160a060020a03168152602001915050600060405180830381600087803b15801561024657600080fd5b505af115801561025a573d6000803e3d6000fd5b505050505050565b60045460009074010000000000000000000000000000000000000000900460ff16600281111561028e57fe5b905090565b600354600160a060020a0382811691161461033557604080517f08c379a000000000000000000000000000000000000000000000000000000000815260206004820152602f60248201527f4f6e6c79204173736f63696174656420736869707065722063616e2063616c6c60448201527f20746869732066756e6374696f6e2e0000000000000000000000000000000000606482015290519081900360840190fd5b6004805474ff000000000000000000000000000000000000000019167401000000000000000000000000000000000000000017808255600254604080517fa19ffd60000000000000000000000000000000000000000000000000000000008152600160a060020a03938416948101949094529082166024840152519084169163a19ffd6091604480830192600092919082900301818387803b15801561024657600080fdfea165627a7a72305820ec66e98b6c5dab837fec98a6918500c3ace5c025fad2baa88a1af2ec9139d7c50029608060405234801561001057600080fd5b5060405160e0806105ff833981018060405260e081101561003057600080fd5b508051602082015160408301516060840151608085015160a086015160c09096015160008054600160a060020a0319908116600160a060020a0398891690811783556001805430908416179055600297909755600395909555600493909355600591909155600680548416968616969096179095556007805483169490951693909317909355600880549093161760a060020a60ff0219169091556105249081906100db90396000f3fe608060405260043610610066577c010000000000000000000000000000000000000000000000000000000060003504633b205a7d811461006b57806352b9996814610092578063638e9a3d146100c757806377651a6e146100fa578063d02eee231461010f575b600080fd5b34801561007757600080fd5b5061008061016b565b60408051918252519081900360200190f35b34801561009e57600080fd5b506100c5600480360360208110156100b557600080fd5b5035600160a060020a031661019c565b005b3480156100d357600080fd5b506100c5600480360360208110156100ea57600080fd5b5035600160a060020a0316610330565b34801561010657600080fd5b506100806104c3565b34801561011b57600080fd5b506101246104c9565b604080519788526020880196909652868601949094526060860192909252600160a060020a03908116608086015290811660a08501521660c0830152519081900360e00190f35b60085460009074010000000000000000000000000000000000000000900460ff16600281111561019757fe5b905090565b600754600160a060020a03828116911614610227576040805160e560020a62461bcd02815260206004820152603260248201527f4f6e6c79204173736f6369617465204d616e7566616374757265722063616e2060448201527f63616c6c20746869732066756e6374696f6e0000000000000000000000000000606482015290519081900360840190fd5b600160085474010000000000000000000000000000000000000000900460ff16600281111561025257fe5b146102a7576040805160e560020a62461bcd02815260206004820152601960248201527f50726f64756374206e6f74207069636b65642075702079657400000000000000604482015290519081900360640190fd5b6008805474ff00000000000000000000000000000000000000001916740200000000000000000000000000000000000000001790556007546006546040805160018152600260208201528151600160a060020a03948516949093169230927f7e89c4b1a4e2b51aae84eb1f90e8a34cb792ece5ac5cb63db4830c891220b28d928290030190a450565b600654600160a060020a038281169116146103bb576040805160e560020a62461bcd02815260206004820152602d60248201527f4f6e6c79204173736f636961746520536869707065722063616e2063616c6c2060448201527f746869732066756e6374696f6e00000000000000000000000000000000000000606482015290519081900360840190fd5b600060085474010000000000000000000000000000000000000000900460ff1660028111156103e657fe5b1461043b576040805160e560020a62461bcd02815260206004820152601c60248201527f5061636b616765206d75737420626520617420537570706c6965722e00000000604482015290519081900360640190fd5b6008805474ff000000000000000000000000000000000000000019167401000000000000000000000000000000000000000017905560075460065460408051600180825260208201528151600160a060020a03948516949093169230927f7e89c4b1a4e2b51aae84eb1f90e8a34cb792ece5ac5cb63db4830c891220b28d928290030190a450565b60055490565b600254600354600454600554600654600754600854600160a060020a039283169291821691169091929394959656fea165627a7a7230582042253a18163eefada82eea546c4dc56f59379b0af4aee31dfd4e84a896e939650029608060405234801561001057600080fd5b506040516080806104bb8339810180604052608081101561003057600080fd5b5080516020820151604083015160609093015160008054600160a060020a0319908116600160a060020a03948516908117835560018054831696861696909617909555600280548216909517909455600380548516958416959095179094556004805490931691161760a060020a60ff02191690556104069081906100b590396000f3fe608060405260043610610050577c01000000000000000000000000000000000000000000000000000000006000350463443c28d88114610055578063d2f3fcc714610092578063f4c07229146100b9575b600080fd5b34801561006157600080fd5b506100906004803603604081101561007857600080fd5b50600160a060020a03813581169160200135166100f4565b005b34801561009e57600080fd5b506100a7610257565b60408051918252519081900360200190f35b3480156100c557600080fd5b50610090600480360360408110156100dc57600080fd5b50600160a060020a0381358116916020013516610288565b600354600160a060020a0382811691161461019657604080517f08c379a000000000000000000000000000000000000000000000000000000000815260206004820152602f60248201527f4f6e6c79204173736f63696174656420736869707065722063616e2063616c6c60448201527f20746869732066756e6374696f6e2e0000000000000000000000000000000000606482015290519081900360840190fd5b6004805474ff000000000000000000000000000000000000000019167401000000000000000000000000000000000000000017808255600254604080517fbd786835000000000000000000000000000000000000000000000000000000008152600160a060020a03938416948101949094529082166024840152519084169163bd78683591604480830192600092919082900301818387803b15801561023b57600080fd5b505af115801561024f573d6000803e3d6000fd5b505050505050565b60045460009074010000000000000000000000000000000000000000900460ff16600281111561028357fe5b905090565b600454600160a060020a0382811691161461032a57604080517f08c379a000000000000000000000000000000000000000000000000000000000815260206004820152603060248201527f4f6e6c79204173736f6369617465642072656365697665722063616e2063616c60448201527f6c20746869732066756e6374696f6e2e00000000000000000000000000000000606482015290519081900360840190fd5b600480546002919074ff000000000000000000000000000000000000000019167401000000000000000000000000000000000000000083021790555081600160a060020a031663952565cf826040518263ffffffff167c01000000000000000000000000000000000000000000000000000000000281526004018082600160a060020a0316600160a060020a03168152602001915050600060405180830381600087803b15801561023b57600080fdfea165627a7a72305820cb183a9ef325d1b045d13ac5de3cc8001b0cb5475e876fab7761cc1cde782f5b00294f6e6c79206d616e7566616374757265722063616e2063616c6c20746869732066756e6374696f6e000000000000000000000000000000000000000000000000a165627a7a7230582008532798e2520b5a97380ccc73ad91c1f8c75399dbbcfc8f4b60fe95c0dba2e70029",
  "source": "pragma solidity >=0.4.25 <0.6.0;\n\nimport './RawMatrials.sol';\nimport './Medicine.sol';\nimport './MedicineW_D.sol';\nimport './MedicineD_P.sol';\n\n/// @title Blockchain : Pharmaceutical SupplyChain\n/// @author Kamal Kishor Mehra\ncontract SupplyChain {\n\n    /// @notice\n    address public Owner;\n\n    /// @notice\n    /// @dev Initiate SupplyChain Contract\n    constructor () public {\n        Owner = msg.sender;\n    }\n/********************************************** Owner Section *********************************************/\n    /// @dev Validate Owner\n    modifier onlyOwner() {\n        require(\n            msg.sender == Owner,\n            \"Only owner can call this function.\"\n        );\n        _;\n    }\n\n    enum roles {\n        norole,\n        supplier,\n        transporter,\n        manufacturer,\n        wholesaler,\n        distributer,\n        pharma,\n        revoke\n    }\n\n    event UserRegister(address indexed EthAddress, bytes32 Name);\n    event UserRoleRevoked(address indexed EthAddress, bytes32 Name, uint Role);\n    event UserRoleRessigne(address indexed EthAddress, bytes32 Name, uint Role);\n\n    /// @notice\n    /// @dev Register New user by Owner\n    /// @param EthAddress Ethereum Network Address of User\n    /// @param Name User name\n    /// @param Location User Location\n    /// @param Role User Role\n    function registerUser(\n        address EthAddress,\n        bytes32 Name,\n        bytes32 Location,\n        uint Role\n        ) public\n        onlyOwner\n        {\n        require(UsersDetails[EthAddress].role == roles.norole, \"User Already registered\");\n        UsersDetails[EthAddress].name = Name;\n        UsersDetails[EthAddress].location = Location;\n        UsersDetails[EthAddress].ethAddress = EthAddress;\n        UsersDetails[EthAddress].role = roles(Role);\n        users.push(EthAddress);\n        emit UserRegister(EthAddress, Name);\n    }\n    /// @notice\n    /// @dev Revoke users role\n    /// @param userAddress User Ethereum Network Address\n    function revokeRole(address userAddress) public onlyOwner {\n        require(UsersDetails[userAddress].role != roles.norole, \"User not registered\");\n        emit UserRoleRevoked(userAddress, UsersDetails[userAddress].name,uint(UsersDetails[userAddress].role));\n        UsersDetails[userAddress].role = roles(7);\n    }\n    /// @notice\n    /// @dev Reassigne new role to User\n    /// @param userAddress User Ethereum Network Address\n    /// @param Role Role to assigne\n    function reassigneRole(address userAddress, uint Role) public onlyOwner {\n        require(UsersDetails[userAddress].role != roles.norole, \"User not registered\");\n        UsersDetails[userAddress].role = roles(Role);\n        emit UserRoleRessigne(userAddress, UsersDetails[userAddress].name,uint(UsersDetails[userAddress].role));\n    }\n\n/********************************************** User Section **********************************************/\n    struct UserInfo {\n        bytes32 name;\n        bytes32 location;\n        address ethAddress;\n        roles role;\n    }\n\n    /// @notice\n    mapping(address => UserInfo) UsersDetails;\n    /// @notice\n    address[] users;\n\n    /// @notice\n    /// @dev Get User Information/ Profile\n    /// @param User User Ethereum Network Address\n    /// @return User Details\n    function getUserInfo(address User) public view returns(\n        bytes32 name,\n        bytes32 location,\n        address ethAddress,\n        roles role\n        ) {\n        return (\n            UsersDetails[User].name,\n            UsersDetails[User].location,\n            UsersDetails[User].ethAddress,\n            UsersDetails[User].role);\n    }\n\n    /// @notice\n    /// @dev Get Number of registered Users\n    /// @return Number of registered Users\n    function getUsersCount() public view returns(uint count){\n        return users.length;\n    }\n\n    /// @notice\n    /// @dev Get User by Index value of stored data\n    /// @param index Indexed Number\n    /// @return User Details\n    function getUserbyIndex(uint index) public view returns(\n        bytes32 name,\n        bytes32 location,\n        address ethAddress,\n        roles role\n        ) {\n        return getUserInfo(users[index]);\n    }\n/********************************************** Supplier Section ******************************************/\n    /// @notice\n    mapping(address => address[]) supplierRawProductInfo;\n    event RawSupplyInit(\n        address indexed ProductID,\n        address indexed Supplier,\n        address Shipper,\n        address indexed Receiver\n    );\n\n    /// @notice\n    /// @dev Create new raw package by Supplier\n    /// @param Des Transporter Ethereum Network Address\n    /// @param Rcvr Manufacturer Ethereum Network Address\n    function createRawPackage(\n        bytes32 Des,\n        bytes32 FN,\n        bytes32 Loc,\n        uint Quant,\n        address Shpr,\n        address Rcvr\n        ) public {\n        require(\n            UsersDetails[msg.sender].role == roles.supplier,\n            \"Only Supplier Can call this function \"\n        );\n        RawMatrials rawData = new RawMatrials(\n            msg.sender,\n            Des,\n            FN,\n            Loc,\n            Quant,\n            Shpr,\n            Rcvr\n            );\n        supplierRawProductInfo[msg.sender].push(address(rawData));\n        ShipperType[Shpr].push(transportationReq(address(rawData),0));\n        emit RawSupplyInit(address(rawData), msg.sender, Shpr, Rcvr);\n    }\n\n    /// @notice\n    /// @dev  Get Count of created package by supplier(caller)\n    /// @return Number of packages\n    function getPackagesCountS() public view returns (uint count){\n        require(\n            UsersDetails[msg.sender].role == roles.supplier,\n            \"Only Supplier Can call this function \"\n        );\n        return supplierRawProductInfo[msg.sender].length;\n    }\n\n    /// @notice\n    /// @dev Get PackageID by Indexed value of stored data\n    /// @param index Indexed Value\n    /// @return PackageID\n    function getPackageIdByIndexS(uint index) public view returns(address packageID) {\n        require(\n            UsersDetails[msg.sender].role == roles.supplier,\n            \"Only Supplier Can call this function \"\n        );\n        return supplierRawProductInfo[msg.sender][index];\n    }\n\n/********************************************** Transporter Section ******************************************/\n    struct transportationReq {\n        address consignmentID;\n        uint tarnsType;\n\n    }\n    mapping(address => transportationReq[]) ShipperType;\n\n    function transportCount() public view returns(uint count){\n        return ShipperType[msg.sender].length;\n    }\n\n    function getTransportBatchIdByIndex(uint index) public view returns(address,uint){\n        require(\n            UsersDetails[msg.sender].role == roles.transporter,\n            \"Only Transporter Can call this function \"\n        );\n        return (ShipperType[msg.sender][index].consignmentID,ShipperType[msg.sender][index].tarnsType);\n    }\n\n    /// @notice\n    /// @dev Load Consingment fot transport one location to another.\n    /// @param pid PackageID or MedicineID\n    /// @param transportertype Transporter Type on the basic of tx between Roles\n    /// @param cid Sub Contract ID for Consingment transaction\n    function loadConsingment(\n        address pid, //Package or Batch ID\n        uint transportertype,\n        address cid\n        ) public {\n        require(\n            UsersDetails[msg.sender].role == roles.transporter,\n            \"Only Transporter can call this function\"\n        );\n        require(\n            transportertype > 0,\n            \"Transporter Type must be define\"\n        );\n\n        if(transportertype == 1) {  // Supplier to Manufacturer\n            RawMatrials(pid).pickPackage(msg.sender);\n        } else if(transportertype == 2) {   // Manufacturer to Wholesaler OR Manufacturer to Distributer\n            Medicine(pid).pickPackage(msg.sender);\n        } else if(transportertype == 3) {   // Wholesaler to Distributer\n            MedicineW_D(cid).pickWD(pid,msg.sender);\n        } else if(transportertype == 4) {   // Distrubuter to Pharma\n            MedicineD_P(cid).pickDP(pid,msg.sender);\n        }\n    }\n\n/********************************************** Manufacturer Section ******************************************/\n\n    /// @notice\n    mapping(address => address[]) RawPackagesAtManufacturer;\n    mapping(address => uint) RawRemainingQuantity;\n    /// @notice\n    /// @dev Update Package / Medicine batch recieved status by ethier Manufacturer or Distributer\n    /// @param pid  PackageID or MedicineID\n    function  rawPackageReceived(\n        address pid\n    ) public {\n        require(\n            UsersDetails[msg.sender].role == roles.manufacturer,\n            \"Only manufacturer can call this function\"\n        );\n\n        RawMatrials(pid).receivedPackage(msg.sender);\n        RawPackagesAtManufacturer[msg.sender].push(pid);\n    }\n\n    /// @notice\n    /// @dev Get Package Count at Manufacturer\n    /// @return Number of Packages at Manufacturer\n    function getPackagesCountM() public view returns(uint count){\n        require(\n            UsersDetails[msg.sender].role == roles.manufacturer,\n            \"Only manufacturer can call this function\"\n        );\n        return RawPackagesAtManufacturer[msg.sender].length;\n    }\n\n    /// @notice\n    /// @dev Get PackageID by Indexed value of stored data\n    /// @param index Indexed Value\n    /// @return PackageID\n    function getPackageIDByIndexM(uint index) public view returns(address BatchID, uint UsedQuantity){\n        require(\n            UsersDetails[msg.sender].role == roles.manufacturer,\n            \"Only manufacturer can call this function\"\n        );\n        return (RawPackagesAtManufacturer[msg.sender][index],RawRemainingQuantity[RawPackagesAtManufacturer[msg.sender][index]]);\n    }\n\n    /// @notice\n    /// @dev update raw package quantity\n    /// @param PackageID Raw Package ID\n    /// @param Quantity quantity to be used\n    /// @return nothing\n    function useRawPackage(address[] memory PackageID, uint[] memory Quantity) public{\n        require(\n            UsersDetails[msg.sender].role == roles.manufacturer,\n            \"Only manufacturer can call this function\"\n        );\n        RawRemainingQuantity[PackageID[0]] += Quantity[0];\n        RawRemainingQuantity[PackageID[1]] += Quantity[1];\n        RawRemainingQuantity[PackageID[2]] += Quantity[2];\n        RawRemainingQuantity[PackageID[3]] += Quantity[3];\n        RawRemainingQuantity[PackageID[4]] += Quantity[4];\n    }\n\n    /// @notice\n    /// @dev get raw package consume quantity\n    /// @param PackageID Raw Package ID\n    /// @return InitQuantity CrntQuantity intial & consumed quantity\n    function getRawPackageQunatity(address PackageID) public view returns(uint,uint){\n        require(\n            UsersDetails[msg.sender].role == roles.manufacturer,\n            \"Only manufacturer can call this function\"\n        );\n        return (RawMatrials(PackageID).getInitQuantity(),RawRemainingQuantity[PackageID]);\n    }\n\n\n    /// @notice\n    mapping(address => address[]) ManufactureredMedicineBatches;\n    event MedicineNewBatch(\n        address indexed BatchId,\n        address indexed Manufacturer,\n        address shipper,\n        address indexed Receiver\n    );\n\n    /// @notice\n    /// @dev Create Medicine Batch\n    /// @param Des Description of Medicine batch\n    /// @param RM RawMatrials Information\n    /// @param Quant Number of Units\n    /// @param Shpr Transporter Ethereum Network Address\n    /// @param Rcvr Receiver Ethereum Network Address\n    /// @param RcvrType Receiver Type Ethier Wholesaler(1) or Distributer(2)\n    function manufacturMedicine(\n        bytes32 Des,\n        bytes32 RM,\n        uint Quant,\n        address Shpr,\n        address Rcvr,\n        uint RcvrType\n    ) public {\n        require(\n            UsersDetails[msg.sender].role == roles.manufacturer,\n            \"Only manufacturer can call this function\"\n        );\n        require(\n            RcvrType != 0,\n            \"Receiver Type must be define\"\n        );\n\n        Medicine m = new Medicine(\n            msg.sender,\n            Des,\n            RM,\n            Quant,\n            Shpr,\n            Rcvr,\n            RcvrType\n        );\n\n        ManufactureredMedicineBatches[msg.sender].push(address(m));\n        if(RcvrType==1){\n            ShipperType[Shpr].push(transportationReq(address(m),1));\n        }else if(RcvrType==2){\n            ShipperType[Shpr].push(transportationReq(address(m),2));\n        }\n\n        emit MedicineNewBatch(address(m), msg.sender, Shpr, Rcvr);\n    }\n\n    /// @notice\n    /// @dev Get Medicine Batch Count\n    /// @return Number of Batches\n    function getBatchesCountM() public view returns (uint count){\n        require(\n            UsersDetails[msg.sender].role == roles.manufacturer,\n            \"Only Manufacturer Can call this function.\"\n        );\n        return ManufactureredMedicineBatches[msg.sender].length;\n    }\n\n    /// @notice\n    /// @dev Get Medicine BatchID by indexed value of stored data\n    /// @param index Indexed Number\n    /// @return Medicine BatchID\n    function getBatchIdByIndexM(uint index) public view returns(address packageID) {\n        require(\n            UsersDetails[msg.sender].role == roles.manufacturer,\n            \"Only Manufacturer Can call this function.\"\n        );\n        return ManufactureredMedicineBatches[msg.sender][index];\n    }\n\n\n/********************************************** Wholesaler Section ******************************************/\n    /// @notice\n    mapping(address => address[]) MedicineBatchesAtWholesaler;\n\n    /// @notice\n    /// @dev Medicine Batch Received\n    /// @param batchid Medicine BatchID\n    /// @param cid Sub Contract ID for Medicine (if transaction Wholesaler to Distributer)\n    function MedicineReceived(\n        address batchid,\n        address cid\n    ) public {\n        require(\n            UsersDetails[msg.sender].role == roles.wholesaler || UsersDetails[msg.sender].role == roles.distributer,\n            \"Only Wholesaler and Distributer can call this function\"\n        );\n\n        uint rtype = Medicine(batchid).receivedPackage(msg.sender);\n        if(rtype == 1){\n            MedicineBatchesAtWholesaler[msg.sender].push(batchid);\n        }else if( rtype == 2){\n            MedicineBatchesAtWholesaler[msg.sender].push(batchid);\n            if(Medicine(batchid).getWDP()[0] != address(0)){\n                MedicineW_D(cid).recieveWD(batchid,msg.sender);\n            }\n        }\n    }\n\n    /// @notice\n    mapping(address => address[]) MedicineWtoD;\n    /// @notice\n    mapping(address => address) MedicineWtoDTxContract;\n\n    /// @notice\n    /// @dev Sub Contract for Medicine Transfer from Wholesaler to Distributer\n    /// @param BatchID Medicine BatchID\n    /// @param Shipper Transporter Ethereum Network Address\n    /// @param Receiver Distributer Ethereum Network Address\n    function transferMedicineWtoD(\n        address BatchID,\n        address Shipper,\n        address Receiver\n    ) public {\n        require(\n            UsersDetails[msg.sender].role == roles.wholesaler &&\n            msg.sender == Medicine(BatchID).getWDP()[0],\n            \"Only Wholesaler or current owner of package can call this function\"\n        );\n        MedicineW_D wd = new MedicineW_D(\n            BatchID,\n            msg.sender,\n            Shipper,\n            Receiver\n        );\n        MedicineWtoD[msg.sender].push(address(wd));\n        ShipperType[Shipper].push(transportationReq(address(wd),3));\n        MedicineWtoDTxContract[BatchID] = address(wd);\n    }\n\n    /// @notice\n    /// @dev Get Medicine Batch Count\n    /// @return Number of Batches\n    function getBatchesCountWD() public view returns (uint count){\n        require(\n            UsersDetails[msg.sender].role == roles.wholesaler,\n            \"Only Wholesaler Can call this function.\"\n        );\n        return MedicineWtoD[msg.sender].length;\n    }\n\n    /* @notice\n    @dev Get Medicine BatchID by indexed value of stored data\n    @param index Indexed Number\n    @return {\n    \"packageID\" : \"Medicine BatchID\"\n    }\n    */\n    function getBatchIdByIndexWD(uint index) public view returns(address packageID) {\n        require(\n            UsersDetails[msg.sender].role == roles.wholesaler,\n            \"Only Wholesaler Can call this function.\"\n        );\n        return MedicineWtoD[msg.sender][index];\n    }\n\n    /// @notice\n    /// @dev Get Sub Contract ID of Medicine Batch Transfer in between Wholesaler to Distributer\n    /// @param BatchID Medicine BatchID\n    /// @return SubContract ID\n    function getSubContractWD(address BatchID) public view returns (address SubContractWD) {\n        // require(\n        //     UsersDetails[msg.sender].role == roles.wholesaler,\n        //     \"Only Wholesaler Can call this function.\"\n        // );\n        return MedicineWtoDTxContract[BatchID];\n    }\n\n/********************************************** Distributer Section ******************************************/\n    /// @notice\n    mapping(address => address[]) MedicineBatchAtDistributer;\n\n    /// @notice\n    mapping(address => address[]) MedicineDtoP;\n\n    /// @notice\n    mapping(address => address) MedicineDtoPTxContract;\n\n    /// @notice\n    /// @dev Transfer Medicine BatchID in between Distributer to Pharma\n    /// @param BatchID Medicine BatchID\n    /// @param Shipper Transporter Ethereum Network Address\n    /// @param Receiver Pharma Ethereum Network Address\n    function transferMedicineDtoP(\n        address BatchID,\n        address Shipper,\n        address Receiver\n    ) public {\n        require(\n            UsersDetails[msg.sender].role == roles.distributer &&\n            msg.sender == Medicine(BatchID).getWDP()[1],\n            \"Only Distributer or current owner of package can call this function\"\n        );\n        MedicineD_P dp = new MedicineD_P(\n            BatchID,\n            msg.sender,\n            Shipper,\n            Receiver\n        );\n        MedicineDtoP[msg.sender].push(address(dp));\n        ShipperType[Shipper].push(transportationReq(address(dp),4));\n        MedicineDtoPTxContract[BatchID] = address(dp);\n    }\n\n    /// @notice\n    /// @dev Get Medicine BatchID Count\n    /// @return Number of Batches\n    function getBatchesCountDP() public view returns (uint count){\n        require(\n            UsersDetails[msg.sender].role == roles.distributer,\n            \"Only Distributer Can call this function.\"\n        );\n        return MedicineDtoP[msg.sender].length;\n    }\n\n    /// @notice\n    /// @dev Get Medicine BatchID by indexed value of stored data\n    /// @param index Index Number\n    /// @return Medicine BatchID\n    function getBatchIdByIndexDP(uint index) public view returns(address packageID) {\n        require(\n            UsersDetails[msg.sender].role == roles.distributer,\n            \"Only Distributer Can call this function.\"\n        );\n        return MedicineDtoP[msg.sender][index];\n    }\n\n    /// @notice\n    /// @dev Get SubContract ID of Medicine Batch Transfer in between Distributer to Pharma\n    /// @param BatchID Medicine BatchID\n    /// @return SubContract ID\n    function getSubContractDP(address BatchID) public view returns (address SubContractDP) {\n        // require(\n        //     UsersDetails[msg.sender].role == roles.distributer,\n        //     \"Only Distributer Can call this function.\"\n        // );\n        return MedicineDtoPTxContract[BatchID];\n    }\n\n/********************************************** Pharma Section ******************************************/\n    /// @notice\n    mapping(address => address[]) MedicineBatchAtPharma;\n\n    /// @notice\n    /// @dev Medicine Batch Recieved\n    /// @param batchid Medicine BatchID\n    /// @param cid SubContract ID\n    function MedicineRecievedAtPharma(\n        address batchid,\n        address cid\n    ) public {\n        require(\n            UsersDetails[msg.sender].role == roles.pharma,\n            \"Only Pharma Can call this function.\"\n        );\n        MedicineD_P(cid).recieveDP(batchid, msg.sender);\n        MedicineBatchAtPharma[msg.sender].push(batchid);\n        sale[batchid] = salestatus(1);\n    }\n\n    enum salestatus {\n        notfound,\n        atpharma,\n        sold,\n        expire,\n        damaged\n    }\n\n    /// @notice\n    mapping(address => salestatus) sale;\n\n    event MedicineStatus(\n        address BatchID,\n        address indexed Pharma,\n        uint status\n    );\n\n    /// @notice\n    /// @dev Update Medicine Batch status\n    /// @param BatchID Medicine BatchID\n    /// @param Status Medicine Batch Status ( sold, expire etc.)\n    function updateSaleStatus(\n        address BatchID,\n        uint Status\n    ) public {\n        require(\n            UsersDetails[msg.sender].role == roles.pharma &&\n            msg.sender == Medicine(BatchID).getWDP()[2],\n            \"Only Pharma or current owner of package can call this function\"\n        );\n        require(sale[BatchID] == salestatus(1), \"Medicine Must be at Pharma\");\n        sale[BatchID] = salestatus(Status);\n\n        emit MedicineStatus(BatchID, msg.sender, Status);\n    }\n\n    /// @notice\n    /// @dev Get Medicine Batch status\n    /// @param BatchID Medicine BatchID\n    /// @return Status\n    function salesInfo(\n        address BatchID\n    ) public\n    view\n    returns(\n        uint Status\n    ){\n        return uint(sale[BatchID]);\n    }\n\n    /// @notice\n    /// @dev Get Medicine Batch count\n    /// @return Number of Batches\n    function getBatchesCountP() public view returns(uint count){\n        require(\n            UsersDetails[msg.sender].role == roles.pharma,\n            \"Only Wholesaler or current owner of package can call this function\"\n        );\n        return  MedicineBatchAtPharma[msg.sender].length;\n    }\n\n    /// @notice\n    /// @dev Get Medicine BatchID by indexed value of stored data\n    /// @param index Index Number\n    /// @return Medicine BatchID\n    function getBatchIdByIndexP(uint index) public view returns(address BatchID){\n        require(\n            UsersDetails[msg.sender].role == roles.pharma,\n            \"Only Wholesaler or current owner of package can call this function\"\n        );\n        return MedicineBatchAtPharma[msg.sender][index];\n    }\n}\n",
  "sourcePath": "/home/celebal/personal/ethereum/Blockchain_SupplyChain/contracts/SupplyChain.sol",
  "compiler": {
    "name": "solc",
    "version": "0.5.1+commit.c8a2cb62.Emscripten.clang"
  },
  "schemaVersion": "3.0.0",
  "updatedAt": "2019-03-08T10:18:21.213Z",
  "devdoc": {
    "author": "Kamal Kishor Mehra",
    "methods": {
      "MedicineReceived(address,address)": {
        "params": {
          "batchid": "Medicine BatchID",
          "cid": "Sub Contract ID for Medicine (if transaction Wholesaler to Distributer)"
        }
      },
      "MedicineRecievedAtPharma(address,address)": {
        "params": {
          "batchid": "Medicine BatchID",
          "cid": "SubContract ID"
        }
      },
      "createRawPackage(bytes32,bytes32,bytes32,uint256,address,address)": {
        "params": {
          "Des": "Transporter Ethereum Network Address",
          "Rcvr": "Manufacturer Ethereum Network Address"
        }
      },
      "getBatchIdByIndexDP(uint256)": {
        "params": {
          "index": "Index Number"
        },
        "return": "Medicine BatchID"
      },
      "getBatchIdByIndexM(uint256)": {
        "params": {
          "index": "Indexed Number"
        },
        "return": "Medicine BatchID"
      },
      "getBatchIdByIndexP(uint256)": {
        "params": {
          "index": "Index Number"
        },
        "return": "Medicine BatchID"
      },
      "getBatchesCountDP()": {
        "return": "Number of Batches"
      },
      "getBatchesCountM()": {
        "return": "Number of Batches"
      },
      "getBatchesCountP()": {
        "return": "Number of Batches"
      },
      "getBatchesCountWD()": {
        "return": "Number of Batches"
      },
      "getPackageIDByIndexM(uint256)": {
        "params": {
          "index": "Indexed Value"
        },
        "return": "PackageID"
      },
      "getPackageIdByIndexS(uint256)": {
        "params": {
          "index": "Indexed Value"
        },
        "return": "PackageID"
      },
      "getPackagesCountM()": {
        "return": "Number of Packages at Manufacturer"
      },
      "getPackagesCountS()": {
        "return": "Number of packages"
      },
      "getRawPackageQunatity(address)": {
        "params": {
          "PackageID": "Raw Package ID"
        },
        "return": "InitQuantity CrntQuantity intial & consumed quantity"
      },
      "getSubContractDP(address)": {
        "params": {
          "BatchID": "Medicine BatchID"
        },
        "return": "SubContract ID"
      },
      "getSubContractWD(address)": {
        "params": {
          "BatchID": "Medicine BatchID"
        },
        "return": "SubContract ID"
      },
      "getUserInfo(address)": {
        "params": {
          "User": "User Ethereum Network Address"
        },
        "return": "User Details"
      },
      "getUserbyIndex(uint256)": {
        "params": {
          "index": "Indexed Number"
        },
        "return": "User Details"
      },
      "getUsersCount()": {
        "return": "Number of registered Users"
      },
      "loadConsingment(address,uint256,address)": {
        "params": {
          "cid": "Sub Contract ID for Consingment transaction",
          "pid": "PackageID or MedicineID",
          "transportertype": "Transporter Type on the basic of tx between Roles"
        }
      },
      "manufacturMedicine(bytes32,bytes32,uint256,address,address,uint256)": {
        "params": {
          "Des": "Description of Medicine batch",
          "Quant": "Number of Units",
          "RM": "RawMatrials Information",
          "Rcvr": "Receiver Ethereum Network Address",
          "RcvrType": "Receiver Type Ethier Wholesaler(1) or Distributer(2)",
          "Shpr": "Transporter Ethereum Network Address"
        }
      },
      "rawPackageReceived(address)": {
        "params": {
          "pid": "PackageID or MedicineID"
        }
      },
      "reassigneRole(address,uint256)": {
        "params": {
          "Role": "Role to assigne",
          "userAddress": "User Ethereum Network Address"
        }
      },
      "registerUser(address,bytes32,bytes32,uint256)": {
        "params": {
          "EthAddress": "Ethereum Network Address of User",
          "Location": "User Location",
          "Name": "User name",
          "Role": "User Role"
        }
      },
      "revokeRole(address)": {
        "params": {
          "userAddress": "User Ethereum Network Address"
        }
      },
      "salesInfo(address)": {
        "params": {
          "BatchID": "Medicine BatchID"
        },
        "return": "Status"
      },
      "transferMedicineDtoP(address,address,address)": {
        "params": {
          "BatchID": "Medicine BatchID",
          "Receiver": "Pharma Ethereum Network Address",
          "Shipper": "Transporter Ethereum Network Address"
        }
      },
      "transferMedicineWtoD(address,address,address)": {
        "params": {
          "BatchID": "Medicine BatchID",
          "Receiver": "Distributer Ethereum Network Address",
          "Shipper": "Transporter Ethereum Network Address"
        }
      },
      "updateSaleStatus(address,uint256)": {
        "params": {
          "BatchID": "Medicine BatchID",
          "Status": "Medicine Batch Status ( sold, expire etc.)"
        }
      },
      "useRawPackage(address[],uint256[])": {
        "params": {
          "PackageID": "Raw Package ID",
          "Quantity": "quantity to be used"
        },
        "return": "nothing"
      }
    },
    "title": "Blockchain : Pharmaceutical SupplyChain"
  },
  "userdoc": {
    "methods": {
      "MedicineReceived(address,address)": {
        "notice": "@dev Medicine Batch Received"
      },
      "MedicineRecievedAtPharma(address,address)": {
        "notice": "@dev Medicine Batch Recieved"
      },
      "constructor": "@dev Initiate SupplyChain Contract",
      "createRawPackage(bytes32,bytes32,bytes32,uint256,address,address)": {
        "notice": "@dev Create new raw package by Supplier"
      },
      "getBatchIdByIndexDP(uint256)": {
        "notice": "@dev Get Medicine BatchID by indexed value of stored data"
      },
      "getBatchIdByIndexM(uint256)": {
        "notice": "@dev Get Medicine BatchID by indexed value of stored data"
      },
      "getBatchIdByIndexP(uint256)": {
        "notice": "@dev Get Medicine BatchID by indexed value of stored data"
      },
      "getBatchesCountDP()": {
        "notice": "@dev Get Medicine BatchID Count"
      },
      "getBatchesCountM()": {
        "notice": "@dev Get Medicine Batch Count"
      },
      "getBatchesCountP()": {
        "notice": "@dev Get Medicine Batch count"
      },
      "getBatchesCountWD()": {
        "notice": "@dev Get Medicine Batch Count"
      },
      "getPackageIDByIndexM(uint256)": {
        "notice": "@dev Get PackageID by Indexed value of stored data"
      },
      "getPackageIdByIndexS(uint256)": {
        "notice": "@dev Get PackageID by Indexed value of stored data"
      },
      "getPackagesCountM()": {
        "notice": "@dev Get Package Count at Manufacturer"
      },
      "getPackagesCountS()": {
        "notice": "@dev  Get Count of created package by supplier(caller)"
      },
      "getRawPackageQunatity(address)": {
        "notice": "@dev get raw package consume quantity"
      },
      "getSubContractDP(address)": {
        "notice": "@dev Get SubContract ID of Medicine Batch Transfer in between Distributer to Pharma"
      },
      "getSubContractWD(address)": {
        "notice": "@dev Get Sub Contract ID of Medicine Batch Transfer in between Wholesaler to Distributer"
      },
      "getUserInfo(address)": {
        "notice": "@dev Get User Information/ Profile"
      },
      "getUserbyIndex(uint256)": {
        "notice": "@dev Get User by Index value of stored data"
      },
      "getUsersCount()": {
        "notice": "@dev Get Number of registered Users"
      },
      "loadConsingment(address,uint256,address)": {
        "notice": "@dev Load Consingment fot transport one location to another."
      },
      "manufacturMedicine(bytes32,bytes32,uint256,address,address,uint256)": {
        "notice": "@dev Create Medicine Batch"
      },
      "rawPackageReceived(address)": {
        "notice": "@dev Update Package / Medicine batch recieved status by ethier Manufacturer or Distributer"
      },
      "reassigneRole(address,uint256)": {
        "notice": "@dev Reassigne new role to User"
      },
      "registerUser(address,bytes32,bytes32,uint256)": {
        "notice": "@dev Register New user by Owner"
      },
      "revokeRole(address)": {
        "notice": "@dev Revoke users role"
      },
      "salesInfo(address)": {
        "notice": "@dev Get Medicine Batch status"
      },
      "transferMedicineDtoP(address,address,address)": {
        "notice": "@dev Transfer Medicine BatchID in between Distributer to Pharma"
      },
      "transferMedicineWtoD(address,address,address)": {
        "notice": "@dev Sub Contract for Medicine Transfer from Wholesaler to Distributer"
      },
      "updateSaleStatus(address,uint256)": {
        "notice": "@dev Update Medicine Batch status"
      },
      "useRawPackage(address[],uint256[])": {
        "notice": "@dev update raw package quantity"
      }
    }
  }
}