{
  "contractName": "SupplyChain_OLD",
  "abi": [
    {
      "constant": true,
      "inputs": [],
      "name": "Owner",
      "outputs": [
        {
          "name": "",
          "type": "address"
        }
      ],
      "payable": false,
      "stateMutability": "view",
      "type": "function"
    },
    {
      "inputs": [],
      "payable": false,
      "stateMutability": "nonpayable",
      "type": "constructor"
    },
    {
      "anonymous": false,
      "inputs": [
        {
          "indexed": true,
          "name": "EthAddress",
          "type": "address"
        },
        {
          "indexed": false,
          "name": "Name",
          "type": "bytes32"
        }
      ],
      "name": "UserRegister",
      "type": "event"
    },
    {
      "anonymous": false,
      "inputs": [
        {
          "indexed": true,
          "name": "EthAddress",
          "type": "address"
        },
        {
          "indexed": false,
          "name": "Name",
          "type": "bytes32"
        },
        {
          "indexed": false,
          "name": "Role",
          "type": "uint256"
        }
      ],
      "name": "UserRoleRevoked",
      "type": "event"
    },
    {
      "anonymous": false,
      "inputs": [
        {
          "indexed": true,
          "name": "EthAddress",
          "type": "address"
        },
        {
          "indexed": false,
          "name": "Name",
          "type": "bytes32"
        },
        {
          "indexed": false,
          "name": "Role",
          "type": "uint256"
        }
      ],
      "name": "UserRoleRessigne",
      "type": "event"
    },
    {
      "anonymous": false,
      "inputs": [
        {
          "indexed": true,
          "name": "ProductID",
          "type": "bytes32"
        },
        {
          "indexed": true,
          "name": "Supplier",
          "type": "address"
        },
        {
          "indexed": false,
          "name": "Shipper",
          "type": "address"
        },
        {
          "indexed": true,
          "name": "Receiver",
          "type": "address"
        }
      ],
      "name": "RawSupplyInit",
      "type": "event"
    },
    {
      "anonymous": false,
      "inputs": [
        {
          "indexed": true,
          "name": "BatchId",
          "type": "bytes32"
        },
        {
          "indexed": true,
          "name": "Shipper",
          "type": "address"
        },
        {
          "indexed": true,
          "name": "receiver",
          "type": "address"
        },
        {
          "indexed": false,
          "name": "transportertype",
          "type": "uint256"
        },
        {
          "indexed": false,
          "name": "status",
          "type": "uint256"
        }
      ],
      "name": "ShippmentUpdate",
      "type": "event"
    },
    {
      "anonymous": false,
      "inputs": [
        {
          "indexed": true,
          "name": "BatchID",
          "type": "bytes32"
        },
        {
          "indexed": true,
          "name": "shipper",
          "type": "address"
        },
        {
          "indexed": true,
          "name": "supplier",
          "type": "address"
        },
        {
          "indexed": false,
          "name": "receiver",
          "type": "address"
        }
      ],
      "name": "RawProductReceive",
      "type": "event"
    },
    {
      "anonymous": false,
      "inputs": [
        {
          "indexed": true,
          "name": "BatchId",
          "type": "bytes32"
        },
        {
          "indexed": true,
          "name": "Manufacturer",
          "type": "address"
        },
        {
          "indexed": false,
          "name": "shipper",
          "type": "address"
        },
        {
          "indexed": true,
          "name": "Reciever",
          "type": "address"
        }
      ],
      "name": "MedicineNewBatch",
      "type": "event"
    },
    {
      "anonymous": false,
      "inputs": [
        {
          "indexed": true,
          "name": "BathcID",
          "type": "bytes32"
        },
        {
          "indexed": true,
          "name": "Sender",
          "type": "address"
        },
        {
          "indexed": true,
          "name": "Shipper",
          "type": "address"
        },
        {
          "indexed": false,
          "name": "Receiver",
          "type": "address"
        }
      ],
      "name": "MedicineReceive",
      "type": "event"
    },
    {
      "anonymous": false,
      "inputs": [
        {
          "indexed": true,
          "name": "BatchID",
          "type": "bytes32"
        },
        {
          "indexed": true,
          "name": "Shipper",
          "type": "address"
        },
        {
          "indexed": true,
          "name": "Receiver",
          "type": "address"
        },
        {
          "indexed": false,
          "name": "Sender",
          "type": "address"
        }
      ],
      "name": "MedicineTransportWtoD",
      "type": "event"
    },
    {
      "anonymous": false,
      "inputs": [
        {
          "indexed": true,
          "name": "BatchID",
          "type": "bytes32"
        },
        {
          "indexed": true,
          "name": "Shipper",
          "type": "address"
        },
        {
          "indexed": true,
          "name": "Receiver",
          "type": "address"
        },
        {
          "indexed": false,
          "name": "Sender",
          "type": "address"
        }
      ],
      "name": "MedicineShipToPharma",
      "type": "event"
    },
    {
      "anonymous": false,
      "inputs": [
        {
          "indexed": true,
          "name": "BatchID",
          "type": "bytes32"
        },
        {
          "indexed": true,
          "name": "Shipper",
          "type": "address"
        },
        {
          "indexed": true,
          "name": "Sender",
          "type": "address"
        },
        {
          "indexed": false,
          "name": "Receiver",
          "type": "address"
        }
      ],
      "name": "MedicineReceiveAtPharma",
      "type": "event"
    },
    {
      "anonymous": false,
      "inputs": [
        {
          "indexed": false,
          "name": "BatchID",
          "type": "bytes32"
        },
        {
          "indexed": true,
          "name": "Pharma",
          "type": "address"
        },
        {
          "indexed": false,
          "name": "status",
          "type": "uint256"
        }
      ],
      "name": "MedicineStatus",
      "type": "event"
    },
    {
      "constant": false,
      "inputs": [
        {
          "name": "EthAddress",
          "type": "address"
        },
        {
          "name": "Name",
          "type": "bytes32"
        },
        {
          "name": "Location",
          "type": "bytes32"
        },
        {
          "name": "Role",
          "type": "uint256"
        }
      ],
      "name": "registerUser",
      "outputs": [],
      "payable": false,
      "stateMutability": "nonpayable",
      "type": "function"
    },
    {
      "constant": false,
      "inputs": [
        {
          "name": "userAddress",
          "type": "address"
        }
      ],
      "name": "revokeRole",
      "outputs": [],
      "payable": false,
      "stateMutability": "nonpayable",
      "type": "function"
    },
    {
      "constant": false,
      "inputs": [
        {
          "name": "userAddress",
          "type": "address"
        },
        {
          "name": "Role",
          "type": "uint256"
        }
      ],
      "name": "reassigneRole",
      "outputs": [],
      "payable": false,
      "stateMutability": "nonpayable",
      "type": "function"
    },
    {
      "constant": true,
      "inputs": [
        {
          "name": "User",
          "type": "address"
        }
      ],
      "name": "getUserInfo",
      "outputs": [
        {
          "name": "name",
          "type": "bytes32"
        },
        {
          "name": "location",
          "type": "bytes32"
        },
        {
          "name": "ethAddress",
          "type": "address"
        },
        {
          "name": "role",
          "type": "uint8"
        }
      ],
      "payable": false,
      "stateMutability": "view",
      "type": "function"
    },
    {
      "constant": true,
      "inputs": [],
      "name": "getUsersCount",
      "outputs": [
        {
          "name": "count",
          "type": "uint256"
        }
      ],
      "payable": false,
      "stateMutability": "view",
      "type": "function"
    },
    {
      "constant": true,
      "inputs": [
        {
          "name": "index",
          "type": "uint256"
        }
      ],
      "name": "getUserbyIndex",
      "outputs": [
        {
          "name": "name",
          "type": "bytes32"
        },
        {
          "name": "location",
          "type": "bytes32"
        },
        {
          "name": "ethAddress",
          "type": "address"
        },
        {
          "name": "role",
          "type": "uint8"
        }
      ],
      "payable": false,
      "stateMutability": "view",
      "type": "function"
    },
    {
      "constant": false,
      "inputs": [
        {
          "name": "Description",
          "type": "bytes32"
        },
        {
          "name": "FarmerName",
          "type": "bytes32"
        },
        {
          "name": "Location",
          "type": "bytes32"
        },
        {
          "name": "Quantity",
          "type": "uint256"
        },
        {
          "name": "Shipper",
          "type": "address"
        },
        {
          "name": "Receiver",
          "type": "address"
        }
      ],
      "name": "supplyRaw",
      "outputs": [],
      "payable": false,
      "stateMutability": "nonpayable",
      "type": "function"
    },
    {
      "constant": true,
      "inputs": [],
      "name": "getCountOfProducts",
      "outputs": [
        {
          "name": "count",
          "type": "uint256"
        }
      ],
      "payable": false,
      "stateMutability": "view",
      "type": "function"
    },
    {
      "constant": true,
      "inputs": [
        {
          "name": "index",
          "type": "uint256"
        }
      ],
      "name": "getProductIdByIndex",
      "outputs": [
        {
          "name": "BatchID",
          "type": "bytes32"
        }
      ],
      "payable": false,
      "stateMutability": "view",
      "type": "function"
    },
    {
      "constant": true,
      "inputs": [
        {
          "name": "pid",
          "type": "bytes32"
        }
      ],
      "name": "getSupplyRaw",
      "outputs": [
        {
          "name": "description",
          "type": "bytes32"
        },
        {
          "name": "farmer_name",
          "type": "bytes32"
        },
        {
          "name": "location",
          "type": "bytes32"
        },
        {
          "name": "quantity",
          "type": "uint256"
        },
        {
          "name": "shipper",
          "type": "address"
        },
        {
          "name": "receiver",
          "type": "address"
        },
        {
          "name": "supplier",
          "type": "address"
        }
      ],
      "payable": false,
      "stateMutability": "view",
      "type": "function"
    },
    {
      "constant": true,
      "inputs": [
        {
          "name": "pid",
          "type": "bytes32"
        }
      ],
      "name": "getStatusOfRawMatrials",
      "outputs": [
        {
          "name": "status",
          "type": "uint256"
        }
      ],
      "payable": false,
      "stateMutability": "view",
      "type": "function"
    },
    {
      "constant": false,
      "inputs": [
        {
          "name": "pid",
          "type": "bytes32"
        },
        {
          "name": "transportertype",
          "type": "uint256"
        },
        {
          "name": "receivertype",
          "type": "uint256"
        }
      ],
      "name": "loadpacakage",
      "outputs": [],
      "payable": false,
      "stateMutability": "nonpayable",
      "type": "function"
    },
    {
      "constant": false,
      "inputs": [
        {
          "name": "pid",
          "type": "bytes32"
        }
      ],
      "name": "rawProductReceived",
      "outputs": [],
      "payable": false,
      "stateMutability": "nonpayable",
      "type": "function"
    },
    {
      "constant": false,
      "inputs": [
        {
          "name": "Description",
          "type": "bytes32"
        },
        {
          "name": "RawMatrials",
          "type": "bytes32"
        },
        {
          "name": "Quantity",
          "type": "uint256"
        },
        {
          "name": "Shipper",
          "type": "address"
        },
        {
          "name": "Receiver",
          "type": "address"
        },
        {
          "name": "receivertype",
          "type": "uint256"
        }
      ],
      "name": "newBatch",
      "outputs": [],
      "payable": false,
      "stateMutability": "nonpayable",
      "type": "function"
    },
    {
      "constant": true,
      "inputs": [],
      "name": "getMedicineBatchCount",
      "outputs": [
        {
          "name": "count",
          "type": "uint256"
        }
      ],
      "payable": false,
      "stateMutability": "view",
      "type": "function"
    },
    {
      "constant": true,
      "inputs": [
        {
          "name": "index",
          "type": "uint256"
        }
      ],
      "name": "getBatchIDByIndex",
      "outputs": [
        {
          "name": "BatchID",
          "type": "bytes32"
        }
      ],
      "payable": false,
      "stateMutability": "view",
      "type": "function"
    },
    {
      "constant": true,
      "inputs": [
        {
          "name": "batchID",
          "type": "bytes32"
        }
      ],
      "name": "getMedicineInfo",
      "outputs": [
        {
          "name": "Description",
          "type": "bytes32"
        },
        {
          "name": "RawMatrials",
          "type": "bytes32"
        },
        {
          "name": "Quantity",
          "type": "uint256"
        },
        {
          "name": "Shipper",
          "type": "address"
        },
        {
          "name": "Manufacturer",
          "type": "address"
        }
      ],
      "payable": false,
      "stateMutability": "view",
      "type": "function"
    },
    {
      "constant": true,
      "inputs": [
        {
          "name": "batchID",
          "type": "bytes32"
        }
      ],
      "name": "getWDP",
      "outputs": [
        {
          "name": "Wholesaler",
          "type": "address"
        },
        {
          "name": "Distributer",
          "type": "address"
        },
        {
          "name": "Pharma",
          "type": "address"
        }
      ],
      "payable": false,
      "stateMutability": "view",
      "type": "function"
    },
    {
      "constant": true,
      "inputs": [
        {
          "name": "BatchID",
          "type": "bytes32"
        }
      ],
      "name": "getMedicineStatus",
      "outputs": [
        {
          "name": "status",
          "type": "uint256"
        }
      ],
      "payable": false,
      "stateMutability": "view",
      "type": "function"
    },
    {
      "constant": false,
      "inputs": [
        {
          "name": "pid",
          "type": "bytes32"
        }
      ],
      "name": "medicineReceived",
      "outputs": [],
      "payable": false,
      "stateMutability": "nonpayable",
      "type": "function"
    },
    {
      "constant": false,
      "inputs": [
        {
          "name": "BatchID",
          "type": "bytes32"
        },
        {
          "name": "Shipper",
          "type": "address"
        },
        {
          "name": "Receiver",
          "type": "address"
        }
      ],
      "name": "shipMedicineWtoD",
      "outputs": [],
      "payable": false,
      "stateMutability": "nonpayable",
      "type": "function"
    },
    {
      "constant": true,
      "inputs": [
        {
          "name": "BatchID",
          "type": "bytes32"
        }
      ],
      "name": "shipInfoWtoD",
      "outputs": [
        {
          "name": "shipper",
          "type": "address"
        },
        {
          "name": "receiver",
          "type": "address"
        },
        {
          "name": "status",
          "type": "uint256"
        }
      ],
      "payable": false,
      "stateMutability": "view",
      "type": "function"
    },
    {
      "constant": true,
      "inputs": [],
      "name": "getBatchIdCountW",
      "outputs": [
        {
          "name": "count",
          "type": "uint256"
        }
      ],
      "payable": false,
      "stateMutability": "view",
      "type": "function"
    },
    {
      "constant": true,
      "inputs": [
        {
          "name": "index",
          "type": "uint256"
        }
      ],
      "name": "getBatchIdByIndexW",
      "outputs": [
        {
          "name": "BatchID",
          "type": "bytes32"
        }
      ],
      "payable": false,
      "stateMutability": "view",
      "type": "function"
    },
    {
      "constant": false,
      "inputs": [
        {
          "name": "BatchID",
          "type": "bytes32"
        },
        {
          "name": "Shipper",
          "type": "address"
        },
        {
          "name": "Receiver",
          "type": "address"
        }
      ],
      "name": "shipMedicineDtoP",
      "outputs": [],
      "payable": false,
      "stateMutability": "nonpayable",
      "type": "function"
    },
    {
      "constant": true,
      "inputs": [
        {
          "name": "BatchID",
          "type": "bytes32"
        }
      ],
      "name": "shipInfoDtoP",
      "outputs": [
        {
          "name": "shipper",
          "type": "address"
        },
        {
          "name": "receiver",
          "type": "address"
        },
        {
          "name": "status",
          "type": "uint256"
        }
      ],
      "payable": false,
      "stateMutability": "view",
      "type": "function"
    },
    {
      "constant": true,
      "inputs": [],
      "name": "getBatchIdCountD",
      "outputs": [
        {
          "name": "count",
          "type": "uint256"
        }
      ],
      "payable": false,
      "stateMutability": "view",
      "type": "function"
    },
    {
      "constant": true,
      "inputs": [
        {
          "name": "index",
          "type": "uint256"
        }
      ],
      "name": "getBatchIdByIndexD",
      "outputs": [
        {
          "name": "BatchID",
          "type": "bytes32"
        }
      ],
      "payable": false,
      "stateMutability": "view",
      "type": "function"
    },
    {
      "constant": false,
      "inputs": [
        {
          "name": "BatchID",
          "type": "bytes32"
        }
      ],
      "name": "receiveMedicineFormD",
      "outputs": [],
      "payable": false,
      "stateMutability": "nonpayable",
      "type": "function"
    },
    {
      "constant": false,
      "inputs": [
        {
          "name": "BatchID",
          "type": "bytes32"
        },
        {
          "name": "Status",
          "type": "uint256"
        }
      ],
      "name": "updateSaleStatus",
      "outputs": [],
      "payable": false,
      "stateMutability": "nonpayable",
      "type": "function"
    },
    {
      "constant": true,
      "inputs": [
        {
          "name": "BatchID",
          "type": "bytes32"
        }
      ],
      "name": "salesInfo",
      "outputs": [
        {
          "name": "Status",
          "type": "uint256"
        }
      ],
      "payable": false,
      "stateMutability": "view",
      "type": "function"
    },
    {
      "constant": true,
      "inputs": [],
      "name": "getBatchIdCountP",
      "outputs": [
        {
          "name": "count",
          "type": "uint256"
        }
      ],
      "payable": false,
      "stateMutability": "view",
      "type": "function"
    },
    {
      "constant": true,
      "inputs": [
        {
          "name": "index",
          "type": "uint256"
        }
      ],
      "name": "getBatchIdByIndexP",
      "outputs": [
        {
          "name": "BatchID",
          "type": "bytes32"
        }
      ],
      "payable": false,
      "stateMutability": "view",
      "type": "function"
    }
  ],
  "bytecode": "0x608060405234801561001057600080fd5b5060008054600160a060020a03191633179055613070806100326000396000f3fe6080604052600436106101a5577c010000000000000000000000000000000000000000000000000000000060003504630173ce2c81146101aa578063108329f8146101ff57806331dbe6a114610274578063342d521b146102b0578063373d5c18146103115780633df1ea0a1461034c5780633f36d728146103615780634cd22da01461038b5780634eb84bf3146103df5780634f0dc53e146103f4578063602c9745146104095780636386c1c71461043357806371ffd7f81461046657806372d574ae1461049057806376e903aa146104ba5780637bfda362146104e45780637eee07421461050e57806380e52e3f14610544578063916e99c514610577578063923f645a146105a1578063a075743d146105e6578063a37a27d7146105fb578063a4a1e26314610610578063b4a99a4e14610625578063b782e73114610656578063c155cf6814610680578063d17cd90a146106c1578063e25f38fe146106eb578063e5bff92a1461075c578063e777646814610786578063ede59592146107b0578063f35ea80514610805578063f931cdec14610835578063faefa33514610888575b600080fd5b3480156101b657600080fd5b506101d4600480360360208110156101cd57600080fd5b50356108c9565b60408051600160a060020a039485168152928416602084015292168183015290519081900360600190f35b34801561020b57600080fd5b506102296004803603602081101561022257600080fd5b50356108fe565b6040518085815260200184815260200183600160a060020a0316600160a060020a0316815260200182600781111561025d57fe5b60ff16815260200194505050505060405180910390f35b34801561028057600080fd5b5061029e6004803603602081101561029757600080fd5b503561093f565b60408051918252519081900360200190f35b3480156102bc57600080fd5b506102da600480360360208110156102d357600080fd5b50356109fd565b60408051958652602086019490945284840192909252600160a060020a039081166060850152166080830152519081900360a00190f35b34801561031d57600080fd5b5061034a6004803603604081101561033457600080fd5b50600160a060020a038135169060200135610a3c565b005b34801561035857600080fd5b5061029e610c0a565b34801561036d57600080fd5b5061029e6004803603602081101561038457600080fd5b5035610caf565b34801561039757600080fd5b506103b5600480360360208110156103ae57600080fd5b5035610cdc565b60408051600160a060020a0394851681529290931660208301528183015290519081900360600190f35b3480156103eb57600080fd5b5061029e610d2b565b34801561040057600080fd5b5061029e610dc2565b34801561041557600080fd5b5061029e6004803603602081101561042c57600080fd5b5035610e67565b34801561043f57600080fd5b506102296004803603602081101561045657600080fd5b5035600160a060020a0316610f29565b34801561047257600080fd5b506103b56004803603602081101561048957600080fd5b5035610f65565b34801561049c57600080fd5b5061034a600480360360208110156104b357600080fd5b5035610fab565b3480156104c657600080fd5b5061029e600480360360208110156104dd57600080fd5b50356114df565b3480156104f057600080fd5b5061029e6004803603602081101561050757600080fd5b503561158b565b34801561051a57600080fd5b5061034a6004803603606081101561053157600080fd5b50803590602081013590604001356115b3565b34801561055057600080fd5b5061034a6004803603602081101561056757600080fd5b5035600160a060020a0316611b1c565b34801561058357600080fd5b5061029e6004803603602081101561059a57600080fd5b5035611cde565b3480156105ad57600080fd5b5061034a600480360360808110156105c457600080fd5b50600160a060020a038135169060208101359060408101359060600135611d7c565b3480156105f257600080fd5b5061029e611f95565b34801561060757600080fd5b5061029e612050565b34801561061c57600080fd5b5061029e6120f5565b34801561063157600080fd5b5061063a6120fb565b60408051600160a060020a039092168252519081900360200190f35b34801561066257600080fd5b5061034a6004803603602081101561067957600080fd5b503561210a565b34801561068c57600080fd5b5061034a600480360360608110156106a357600080fd5b50803590600160a060020a03602082013581169160400135166122b9565b3480156106cd57600080fd5b5061034a600480360360208110156106e457600080fd5b5035612468565b3480156106f757600080fd5b506107156004803603602081101561070e57600080fd5b50356126e5565b604080519788526020880196909652868601949094526060860192909252600160a060020a03908116608086015290811660a08501521660c0830152519081900360e00190f35b34801561076857600080fd5b5061029e6004803603602081101561077f57600080fd5b5035612734565b34801561079257600080fd5b5061029e600480360360208110156107a957600080fd5b50356127e0565b3480156107bc57600080fd5b5061034a600480360360c08110156107d357600080fd5b50803590602081013590604081013590600160a060020a03606082013581169160808101359091169060a001356127fd565b34801561081157600080fd5b5061034a6004803603604081101561082857600080fd5b5080359060200135612a5d565b34801561084157600080fd5b5061034a600480360360c081101561085857600080fd5b50803590602081013590604081013590606081013590600160a060020a03608082013581169160a0013516612c0e565b34801561089457600080fd5b5061034a600480360360608110156108ab57600080fd5b50803590600160a060020a0360208201358116916040013516612df3565b6000908152600660208190526040909120908101546007820154600890920154600160a060020a039182169392821692911690565b60008060008061093060028681548110151561091657fe5b600091825260209091200154600160a060020a0316610f29565b93509350935093509193509193565b600060053360009081526001602052604090206002015460a060020a900460ff16600781111561096b57fe5b146109d0576040805160e560020a62461bcd0281526020600482015260426024820152600080516020612f858339815191526044820152600080516020612fa5833981519152606482015260f160020a6137b702608482015290519081900360a40190fd5b336000908152600a602052604090208054839081106109eb57fe5b90600052602060002001549050919050565b60009081526006602052604090206001810154600282015460038301546004840154600590940154929491939092600160a060020a0391821692911690565b600054600160a060020a03163314610ac4576040805160e560020a62461bcd02815260206004820152602260248201527f4f6e6c79206f776e65722063616e2063616c6c20746869732066756e6374696f60448201527f6e2e000000000000000000000000000000000000000000000000000000000000606482015290519081900360840190fd5b6000600160a060020a03831660009081526001602052604090206002015460a060020a900460ff166007811115610af757fe5b1415610b4d576040805160e560020a62461bcd02815260206004820152601360248201527f55736572206e6f74207265676973746572656400000000000000000000000000604482015290519081900360640190fd5b806007811115610b5957fe5b600160a060020a0383166000908152600160205260409020600201805460a060020a60ff02191660a060020a836007811115610b9157fe5b0217905550600160a060020a038216600081815260016020526040902080546002909101547f4c8b3f61ed94356876db0fec52d6a7c6aeaf772c4e0ca8f6da74331cc0f687cc919060a060020a900460ff166007811115610bee57fe5b6040805192835260208301919091528051918290030190a25050565b600060043360009081526001602052604090206002015460a060020a900460ff166007811115610c3657fe5b14610c9b576040805160e560020a62461bcd0281526020600482015260426024820152600080516020612f858339815191526044820152600080516020612fa5833981519152606482015260f160020a6137b702608482015290519081900360a40190fd5b503360009081526008602052604090205490565b60008181526003602052604081206007015460a060020a900460ff166002811115610cd657fe5b92915050565b600081815260096020526040812060028082015460039092015483928392600160a060020a03918216929182169160a060020a900460ff1690811115610d1e57fe5b9250925092509193909250565b600060033360009081526001602052604090206002015460a060020a900460ff166007811115610d5757fe5b14610dae576040805160e560020a62461bcd0281526020600482015260286024820152600080516020612fc58339815191526044820152600080516020613005833981519152606482015290519081900360840190fd5b503360009081526005602052604090205490565b600060053360009081526001602052604090206002015460a060020a900460ff166007811115610dee57fe5b14610e53576040805160e560020a62461bcd0281526020600482015260426024820152600080516020612f858339815191526044820152600080516020612fa5833981519152606482015260f160020a6137b702608482015290519081900360a40190fd5b50336000908152600a602052604090205490565b600060013360009081526001602052604090206002015460a060020a900460ff166007811115610e9357fe5b14610f0e576040805160e560020a62461bcd02815260206004820152602560248201527f4f6e6c7920537570706c6965722043616e2063616c6c20746869732066756e6360448201527f74696f6e20000000000000000000000000000000000000000000000000000000606482015290519081900360840190fd5b3360009081526004602052604090208054839081106109eb57fe5b600160a060020a0390811660009081526001602081905260409091208054918101546002909101549193909282169160a060020a900460ff1690565b6000818152600b60205260408120600181015460028083015460039093015484938493600160a060020a039081169391169160a060020a900460ff1690811115610d1e57fe5b60043360009081526001602052604090206002015460a060020a900460ff166007811115610fd557fe5b1480611008575060053360009081526001602052604090206002015460a060020a900460ff16600781111561100657fe5b145b1515611084576040805160e560020a62461bcd02815260206004820152603660248201527f4f6e6c792057686f6c6573616c657220616e642044697374726962757465722060448201527f63616e2063616c6c20746869732066756e6374696f6e00000000000000000000606482015290519081900360840190fd5b60008181526006602052604090205481146110e9576040805160e560020a62461bcd02815260206004820152601660248201527f50726f6475637420646f6573206e6f7420657869737400000000000000000000604482015290519081900360640190fd5b60016006600083815260200190815260200160002060080160149054906101000a900460ff16600681111561111a57fe5b1015611170576040805160e560020a62461bcd02815260206004820152601960248201527f50726f64756374206e6f74207069636b65642075702079657400000000000000604482015290519081900360640190fd5b3360009081526001602081905260409091206002015460a060020a900460ff16600781111561119b57fe5b0360068111156111a757fe5b60008281526006602081905260409091206008018054909160a060020a60ff02199091169060a060020a9084908111156111dd57fe5b021790555060043360009081526001602052604090206002015460a060020a900460ff16600781111561120c57fe5b14156113055760008181526006602081905260409091200154600160a060020a03163314611284576040805160e560020a62461bcd02815260206004820152601760248201527f57686f6c6573616c657220697320646966666572656e74000000000000000000604482015290519081900360640190fd5b3360008181526008602090815260408083208054600181018255908452828420018590558483526006825291829020600481015460059091015483519485529251600160a060020a0391821694919093169285927f7478eec01e702b6b7f202eb1c19675e24ae1eebb6c87e1ff6574e166d5f43cdb928290030190a46114dc565b60053360009081526001602052604090206002015460a060020a900460ff16600781111561132f57fe5b14156114dc57600081815260066020526040902060070154600160a060020a031633146113a6576040805160e560020a62461bcd02815260206004820152601860248201527f446973747269627574657220697320646966666572656e740000000000000000604482015290519081900360640190fd5b60008181526006602081905260409091200154600160a060020a0316156114575760008181526009602090815260409182902060038101805460a060020a60ff02191674020000000000000000000000000000000000000000179055600281015460019091015483513381529351600160a060020a0392831694929091169285927f7478eec01e702b6b7f202eb1c19675e24ae1eebb6c87e1ff6574e166d5f43cdb929081900390910190a46114b9565b600081815260066020908152604091829020600481015460059091015483513381529351600160a060020a0392831694919092169285927f7478eec01e702b6b7f202eb1c19675e24ae1eebb6c87e1ff6574e166d5f43cdb9281900390910190a45b336000908152600a60209081526040822080546001810182559083529120018190555b50565b600060043360009081526001602052604090206002015460a060020a900460ff16600781111561150b57fe5b14611570576040805160e560020a62461bcd0281526020600482015260426024820152600080516020612f858339815191526044820152600080516020612fa5833981519152606482015260f160020a6137b702608482015290519081900360a40190fd5b3360009081526008602052604090208054839081106109eb57fe5b600081815260066020819052604082206008015460a060020a900460ff1690811115610cd657fe5b60023360009081526001602052604090206002015460a060020a900460ff1660078111156115dd57fe5b14611658576040805160e560020a62461bcd02815260206004820152602760248201527f4f6e6c79205472616e73706f727465722063616e2063616c6c2074686973206660448201527f756e6374696f6e00000000000000000000000000000000000000000000000000606482015290519081900360840190fd5b600082116116b0576040805160e560020a62461bcd02815260206004820152601f60248201527f5472616e73706f727465722054797065206d75737420626520646566696e6500604482015290519081900360640190fd5b816001141561178457600083815260036020526040902060050154600160a060020a03163314611718576040805160e560020a62461bcd0281526020600482015260196024820152600080516020613025833981519152604482015290519081900360640190fd5b60008381526003602090815260409182902060078101805460a060020a60ff02191660a060020a1790556006015482516001808252928101929092528251600160a060020a039091169233928792600080516020612fe5833981519152929181900390910190a4611b17565b816002141561194657600083815260066020526040902060040154600160a060020a031633146117ec576040805160e560020a62461bcd0281526020600482015260196024820152600080516020613025833981519152604482015290519081900360640190fd5b801515611843576040805160e560020a62461bcd02815260206004820152601c60248201527f52656365697665722054797065206d75737420626520646566696e6500000000604482015290519081900360640190fd5b80600681111561184f57fe5b60008481526006602081905260409091206008018054909160a060020a60ff02199091169060a060020a90849081111561188557fe5b021790555080600114156118e857600083815260066020818152604092839020909101548251600281526001928101929092528251600160a060020a039091169233928792600080516020612fe5833981519152929181900390910190a4611941565b8060021415611941576000838152600660209081526040918290206005015482516002808252928101929092528251600160a060020a039091169233928792600080516020612fe5833981519152929181900390910190a45b611b17565b8160031415611a1757600083815260096020526040902060020154600160a060020a031633146119ae576040805160e560020a62461bcd0281526020600482015260196024820152600080516020613025833981519152604482015290519081900360640190fd5b600083815260096020908152604091829020600301805460a060020a60ff02191660a060020a179081905582516001808252928101929092528251600160a060020a039091169233928792600080516020612fe5833981519152929181900390910190a4611b17565b8160041415611b17576000838152600b6020526040902060010154600160a060020a03163314611a7f576040805160e560020a62461bcd0281526020600482015260196024820152600080516020613025833981519152604482015290519081900360640190fd5b6000838152600b6020818152604080842060038101805460a060020a60ff021990811660a060020a1790915560068452948290206008018054909516740500000000000000000000000000000000000000001790945591815260029092015481516001808252938101939093528151600160a060020a039091169233928792600080516020612fe58339815191529281900390910190a45b505050565b600054600160a060020a03163314611ba4576040805160e560020a62461bcd02815260206004820152602260248201527f4f6e6c79206f776e65722063616e2063616c6c20746869732066756e6374696f60448201527f6e2e000000000000000000000000000000000000000000000000000000000000606482015290519081900360840190fd5b6000600160a060020a03821660009081526001602052604090206002015460a060020a900460ff166007811115611bd757fe5b1415611c2d576040805160e560020a62461bcd02815260206004820152601360248201527f55736572206e6f74207265676973746572656400000000000000000000000000604482015290519081900360640190fd5b600160a060020a038116600081815260016020526040902080546002909101547fb5f04dfc1ccfefb366c4dc7a23670362462e0a415afb89d8cba1fb657e264c96919060a060020a900460ff166007811115611c8557fe5b6040805192835260208301919091528051918290030190a2600160a060020a03166000908152600160205260409020600201805460a060020a60ff02191674070000000000000000000000000000000000000000179055565b600060033360009081526001602052604090206002015460a060020a900460ff166007811115611d0a57fe5b14611d61576040805160e560020a62461bcd0281526020600482015260286024820152600080516020612fc58339815191526044820152600080516020613005833981519152606482015290519081900360840190fd5b3360009081526005602052604090208054839081106109eb57fe5b600054600160a060020a03163314611e04576040805160e560020a62461bcd02815260206004820152602260248201527f4f6e6c79206f776e65722063616e2063616c6c20746869732066756e6374696f60448201527f6e2e000000000000000000000000000000000000000000000000000000000000606482015290519081900360840190fd5b6000600160a060020a03851660009081526001602052604090206002015460a060020a900460ff166007811115611e3757fe5b14611e8c576040805160e560020a62461bcd02815260206004820152601760248201527f5573657220416c72656164792072656769737465726564000000000000000000604482015290519081900360640190fd5b600160a060020a03841660008181526001602081905260409091208581559081018490556002018054600160a060020a0319169091179055806007811115611ed057fe5b600160a060020a0385166000908152600160205260409020600201805460a060020a60ff02191660a060020a836007811115611f0857fe5b0217905550600280546001810182556000919091527f405787fa12a823e0f2b7631cc41b3ba8828b3321ca811111fa75cd3aa3bb5ace018054600160a060020a038616600160a060020a031990911681179091556040805185815290517f33a7170f028b1e4f5ba321064a00ed820856a920c7f9c6636fbcf385427b1b0f9181900360200190a250505050565b600060013360009081526001602052604090206002015460a060020a900460ff166007811115611fc157fe5b1461203c576040805160e560020a62461bcd02815260206004820152602560248201527f4f6e6c7920537570706c6965722043616e2063616c6c20746869732066756e6360448201527f74696f6e20000000000000000000000000000000000000000000000000000000606482015290519081900360840190fd5b503360009081526004602052604090205490565b600060063360009081526001602052604090206002015460a060020a900460ff16600781111561207c57fe5b146120e1576040805160e560020a62461bcd0281526020600482015260426024820152600080516020612f858339815191526044820152600080516020612fa5833981519152606482015260f160020a6137b702608482015290519081900360a40190fd5b50336000908152600c602052604090205490565b60025490565b600054600160a060020a031681565b60063360009081526001602052604090206002015460a060020a900460ff16600781111561213457fe5b14801561215a5750600081815260066020526040902060080154600160a060020a031633145b15156121d6576040805160e560020a62461bcd02815260206004820152603e60248201527f4f6e6c7920506861726d61206f722063757272656e74206f776e6572206f662060448201527f7061636b6167652063616e2063616c6c20746869732066756e6374696f6e0000606482015290519081900360840190fd5b6000818152600b6020818152604080842060038101805460a060020a60ff0219908116740200000000000000000000000000000000000000001782556006855283872060080180549091167406000000000000000000000000000000000000000017905533808752600c855283872080546001818101835591895286892001899055888852600d865296849020805460ff1916881790559484525494015481519384529051600160a060020a03948516949091169285927fd2cdcf69957c14edd1b02f1842e1b16ec6d6e72a7f2885ebb4377b5fec9740dd92918290030190a450565b60053360009081526001602052604090206002015460a060020a900460ff1660078111156122e357fe5b1480156123095750600083815260066020526040902060070154600160a060020a031633145b15156123ab576040805160e560020a62461bcd02815260206004820152604360248201527f4f6e6c79204469737472696275746572206f722063757272656e74206f776e6560448201527f72206f66207061636b6167652063616e2063616c6c20746869732066756e637460648201527f696f6e0000000000000000000000000000000000000000000000000000000000608482015290519081900360a40190fd5b6000838152600b60209081526040808320868155600181018054600160a060020a0319908116600160a060020a03898116918217909355600284018054831693891693841790556003909301805474ffffffffffffffffffffffffffffffffffffffffff1916339081179091556006865295849020600801805490911682179055825194855291519193909287927f441f5e2afdb3b50e71754e00bf975ec5511a6e68962f37e3b0bcd28678b285399281900390910190a4505050565b60033360009081526001602052604090206002015460a060020a900460ff16600781111561249257fe5b146124e9576040805160e560020a62461bcd0281526020600482015260286024820152600080516020612fc58339815191526044820152600080516020613005833981519152606482015290519081900360840190fd5b600081815260036020526040902054811461254e576040805160e560020a62461bcd02815260206004820152601660248201527f50726f6475637420646f6573206e6f7420657869737400000000000000000000604482015290519081900360640190fd5b600160008281526003602052604090206007015460a060020a900460ff16600281111561257757fe5b146125cc576040805160e560020a62461bcd02815260206004820152601960248201527f50726f64756374206e6f74207069636b65642075702079657400000000000000604482015290519081900360640190fd5b600081815260036020526040902060060154600160a060020a0316331461263d576040805160e560020a62461bcd02815260206004820152601960248201527f4d616e75666163747572657220697320646966666572656e7400000000000000604482015290519081900360640190fd5b600081815260036020818152604080842060078101805460a060020a60ff02191674020000000000000000000000000000000000000000178155338087526005808652848820805460018101825590895286892001899055968890529484525494015481519384529051600160a060020a03948516949091169285927f5ece0855ece9d3bef8346ff1fe04663cc7fb712acc152c6f14a6e19dad7fe93692918290030190a450565b60009081526003602081905260409091206001810154600282015492820154600483015460058401546006850154600790950154939692949193600160a060020a039182169392821692911690565b600060063360009081526001602052604090206002015460a060020a900460ff16600781111561276057fe5b146127c5576040805160e560020a62461bcd0281526020600482015260426024820152600080516020612f858339815191526044820152600080516020612fa5833981519152606482015260f160020a6137b702608482015290519081900360a40190fd5b336000908152600c602052604090208054839081106109eb57fe5b6000818152600d602052604081205460ff166004811115610cd657fe5b60033360009081526001602052604090206002015460a060020a900460ff16600781111561282757fe5b1461287e576040805160e560020a62461bcd0281526020600482015260286024820152600080516020612fc58339815191526044820152600080516020613005833981519152606482015290519081900360840190fd5b8015156128d5576040805160e560020a62461bcd02815260206004820152601c60248201527f52656365697665722054797065206d75737420626520646566696e6500000000604482015290519081900360640190fd5b60408051336c01000000000000000000000000810260208084019190915243603484015260548084018990528451808503909101815260749093018452825192810192909220600081815260069093529290912082815560018082018a90556002820189905560038201889055600482018054600160a060020a0319908116600160a060020a038a1617909155600583018054909116909317909255600801805460a060020a60ff02191690558214156129b9576000818152600660208190526040909120018054600160a060020a031916600160a060020a0385161790556129ed565b81600214156129ed5760008181526006602052604090206007018054600160a060020a031916600160a060020a0385161790555b3360008181526007602090815260408083208054600181018255908452928290209092018490558151600160a060020a0388811682529251928716939285927fad3a5231a49d6034182c7424c8d30b98112dc324f439324cb2f58ab29f597659928290030190a450505050505050565b60063360009081526001602052604090206002015460a060020a900460ff166007811115612a8757fe5b148015612aad5750600082815260066020526040902060080154600160a060020a031633145b1515612b29576040805160e560020a62461bcd02815260206004820152603e60248201527f4f6e6c7920506861726d61206f722063757272656e74206f776e6572206f662060448201527f7061636b6167652063616e2063616c6c20746869732066756e6374696f6e0000606482015290519081900360840190fd5b60016000838152600d602052604090205460ff166004811115612b4857fe5b14612b9d576040805160e560020a62461bcd02815260206004820152601a60248201527f4d65646963696e65204d75737420626520617420506861726d61000000000000604482015290519081900360640190fd5b806004811115612ba957fe5b6000838152600d60205260409020805460ff19166001836004811115612bcb57fe5b02179055506040805183815260208101839052815133927fe7b14e8a1267505d152402dcb3fe6f7e936a894404546dc49e6bd6dc83d0ab2c928290030190a25050565b60013360009081526001602052604090206002015460a060020a900460ff166007811115612c3857fe5b14612cb3576040805160e560020a62461bcd02815260206004820152602560248201527f4f6e6c7920537570706c6965722043616e2063616c6c20746869732066756e6360448201527f74696f6e20000000000000000000000000000000000000000000000000000000606482015290519081900360840190fd5b604080516c0100000000000000000000000033908102602080840191909152436034840152605480840188905284518085039091018152607490930184528251928101929092206000818152600393849052938420818155600181018b9055600281018a905592830188905560048301879055600583018054600160a060020a03888116600160a060020a03199283161790925560068501805492881692821692909217909155600790930180549093169091178083559092919060a060020a60ff02191660a060020a8302179055503360008181526004602090815260408083208054600181018255908452928290209092018490558151600160a060020a0387811682529251928616939285927f3526c908ab533632ede64662724d93d6c153d7f743618f475ff994b850de4d8c928290030190a450505050505050565b60043360009081526001602052604090206002015460a060020a900460ff166007811115612e1d57fe5b148015612e44575060008381526006602081905260409091200154600160a060020a031633145b1515612eaa576040805160e560020a62461bcd0281526020600482015260426024820152600080516020612f858339815191526044820152600080516020612fa5833981519152606482015260f160020a6137b702608482015290519081900360a40190fd5b6000838152600960209081526040808320868155600281018054600160a060020a03888116600160a060020a03199283168117909355600384018054918916918316821760a060020a60ff02199081169091556001909401805433908416811790915560068752968590206007810180549093168217909255600890910180549093167402000000000000000000000000000000000000000017909255825194855291519093919287927ffad615ed1c60bf65312a19f25cdf659c8e809d971b3ef99f1a8354b80fc8fad9929081900390910190a450505056fe4f6e6c792057686f6c6573616c6572206f722063757272656e74206f776e6572206f66207061636b6167652063616e2063616c6c20746869732066756e6374694f6e6c79206d616e7566616374757265722063616e2063616c6c207468697320064fe04394fef40d84544d70823d9be8bbb02f4bbb5c0612f20be8159aabaac666756e6374696f6e0000000000000000000000000000000000000000000000005472616e73706f72746572206973206f74686572207573657200000000000000a165627a7a723058204e5ff0765a91f8e3e4b464013c822d607b497be7d39b04e49163dcec86799b610029",
  "source": "pragma solidity >=0.4.25 <0.6.0;\n\ncontract SupplyChain_OLD {\n\n    constructor() public {\n        Owner = msg.sender;\n    }\n/********************************************** Owner Section *********************************************/\n    address public Owner;\n    modifier onlyOwner() {\n        require(\n            msg.sender == Owner,\n            \"Only owner can call this function.\"\n        );\n        _;\n    }\n    enum roles {norole, supplier, transporter, manufacturer, wholesaler, distributer, pharma, revoke }\n    \n    event UserRegister(address indexed EthAddress, bytes32 Name);\n    event UserRoleRevoked(address indexed EthAddress, bytes32 Name, uint Role);\n    event UserRoleRessigne(address indexed EthAddress, bytes32 Name, uint Role);\n    \n    function registerUser(\n        address EthAddress, \n        bytes32 Name, \n        bytes32 Location, \n        uint Role\n        ) public \n        onlyOwner \n        {\n        require(UsersDetails[EthAddress].role == roles.norole, \"User Already registered\");\n        UsersDetails[EthAddress].name = Name;\n        UsersDetails[EthAddress].location = Location;\n        UsersDetails[EthAddress].ethAddress = EthAddress;\n        UsersDetails[EthAddress].role = roles(Role);\n        users.push(EthAddress);\n        emit UserRegister(EthAddress, Name);\n    }\n    function revokeRole(address userAddress) public onlyOwner {\n        require(UsersDetails[userAddress].role != roles.norole, \"User not registered\");\n        emit UserRoleRevoked(userAddress, UsersDetails[userAddress].name,uint(UsersDetails[userAddress].role));\n        UsersDetails[userAddress].role = roles(7);\n    }\n    function reassigneRole(address userAddress, uint Role) public onlyOwner {\n        require(UsersDetails[userAddress].role != roles.norole, \"User not registered\");\n        UsersDetails[userAddress].role = roles(Role);\n        emit UserRoleRessigne(userAddress, UsersDetails[userAddress].name,uint(UsersDetails[userAddress].role));\n    }\n/********************************************** User Section **********************************************/\n    struct UserInfo {\n        bytes32 name;\n        bytes32 location;\n        address ethAddress;\n        roles role;\n    }\n\n    mapping(address => UserInfo) UsersDetails;\n    address[] users;\n\n    function getUserInfo(address User) public view returns(\n        bytes32 name,\n        bytes32 location,\n        address ethAddress,\n        roles role\n        ) {\n        return (\n            UsersDetails[User].name,\n            UsersDetails[User].location,\n            UsersDetails[User].ethAddress,\n            UsersDetails[User].role);\n    }\n\n    function getUsersCount() public view returns(uint count){\n        return users.length;\n    }\n\n    function getUserbyIndex(uint index) public view returns(\n        bytes32 name,\n        bytes32 location,\n        address ethAddress,\n        roles role\n        ) {\n        return getUserInfo(users[index]);    \n    }\n/********************************************** Supplier Section ******************************************/\n    enum packageStatus { atcreator, picked, delivered}\n    struct RawProductInfo {\n        bytes32 productid;\n        bytes32 description;\n        bytes32 farmer_name;\n        bytes32 location;\n        uint quantity;\n        address shipper;\n        address receiver;\n        address supplier;\n        packageStatus status;\n        // bytes32 transporter_route;\n        bytes32 packageReceiverDescription;\n    }\n\n    mapping(bytes32 => RawProductInfo) RawProductDetails;\n    mapping(address => bytes32[]) supplierRawProductInfo;\n\n    event RawSupplyInit(\n        bytes32 indexed ProductID, \n        address indexed Supplier, \n        address Shipper, \n        address indexed Receiver\n    );\n\n    function supplyRaw(\n        bytes32 Description, \n        bytes32 FarmerName, \n        bytes32 Location, \n        uint Quantity, \n        address Shipper, \n        address Receiver\n        ) public {\n        require(\n            UsersDetails[msg.sender].role == roles.supplier, \n            \"Only Supplier Can call this function \"\n        );\n        bytes32 pid = keccak256(abi.encodePacked(msg.sender, block.number, Quantity));\n        RawProductDetails[pid].productid = pid;\n        RawProductDetails[pid].description = Description;\n        RawProductDetails[pid].farmer_name = FarmerName;\n        RawProductDetails[pid].location = Location;\n        RawProductDetails[pid].quantity = Quantity;\n        RawProductDetails[pid].shipper = Shipper;\n        RawProductDetails[pid].receiver = Receiver;\n        RawProductDetails[pid].supplier = msg.sender;\n        RawProductDetails[pid].status = packageStatus(0);\n\n        supplierRawProductInfo[msg.sender].push(pid);\n        emit RawSupplyInit(pid, msg.sender, Shipper, Receiver);\n    }\n\n    function getCountOfProducts() public view returns (uint count){\n        require(\n            UsersDetails[msg.sender].role == roles.supplier, \n            \"Only Supplier Can call this function \"\n        );\n        return supplierRawProductInfo[msg.sender].length;\n    }\n\n    function getProductIdByIndex(uint index) public view returns(bytes32 BatchID) {\n        require(\n            UsersDetails[msg.sender].role == roles.supplier, \n            \"Only Supplier Can call this function \"\n        );\n        return supplierRawProductInfo[msg.sender][index];\n    }\n\n    function getSupplyRaw(\n        bytes32 pid\n        ) public\n        view\n        returns(\n            bytes32 description,\n            bytes32 farmer_name,\n            bytes32 location,\n            uint quantity,\n            address shipper,\n            address receiver,\n            address supplier\n        ) {\n        return(\n            RawProductDetails[pid].description,\n            RawProductDetails[pid].farmer_name,\n            RawProductDetails[pid].location,\n            RawProductDetails[pid].quantity,\n            RawProductDetails[pid].shipper,\n            RawProductDetails[pid].receiver,\n            RawProductDetails[pid].supplier\n        );\n    }\n\n    function getStatusOfRawMatrials(\n        bytes32 pid\n    ) public\n    view\n    returns(\n        uint status\n    ) {\n        return uint(RawProductDetails[pid].status);\n    }\n/********************************************** Transporter Section ***************************************/\n    event ShippmentUpdate(\n        bytes32 indexed BatchId, \n        address indexed Shipper, \n        address indexed receiver, \n        uint transportertype, \n        uint status\n    );\n\n    function loadpacakage(bytes32 pid, uint transportertype, uint receivertype) public {\n        require(\n            UsersDetails[msg.sender].role == roles.transporter,\n            \"Only Transporter can call this function\"\n        );\n        require(\n            transportertype > 0,\n            \"Transporter Type must be define\"\n        );\n\n        if(transportertype == 1) {  // Supplier to Manufacturer\n            require(\n                msg.sender == RawProductDetails[pid].shipper,\n                \"Transporter is other user\"\n            );\n            RawProductDetails[pid].status = packageStatus(1);\n            emit ShippmentUpdate(pid, msg.sender, RawProductDetails[pid].receiver,1,1);\n        } else if(transportertype == 2) {   // Manufacturer to Wholesaler OR Manufacturer to Distributer\n            require(\n                msg.sender == MedicineBatchDetails[pid].shipper,\n                \"Transporter is other user\"\n            );\n            require(receivertype != 0,\"Receiver Type must be define\");\n            MedicineBatchDetails[pid].status = medicineStatus(receivertype);\n            if(receivertype == 1){\n                emit ShippmentUpdate(pid, msg.sender, MedicineBatchDetails[pid].wholesaler,2,1);\n            } else if(receivertype == 2){\n                emit ShippmentUpdate(pid, msg.sender, MedicineBatchDetails[pid].manufacturer,2,2);\n            }\n        } else if(transportertype == 3) {   // Wholesaler to Distributer\n            require(\n                msg.sender == MedicineWtoD[pid].shipper,\n                \"Transporter is other user\"\n            );\n            MedicineWtoD[pid].status = packageStatus(1);\n            emit ShippmentUpdate(pid, msg.sender, MedicineWtoD[pid].receiver,1,1);\n        } else if(transportertype == 4) {   // Distrubuter to Pharma\n            require(\n                msg.sender == MedicineDtoR[pid].shipper,\n                \"Transporter is other user\"\n            );\n            MedicineDtoR[pid].status = packageStatus(1);\n            MedicineBatchDetails[pid].status = medicineStatus(5);\n            emit ShippmentUpdate(pid, msg.sender, MedicineDtoR[pid].receiver,1,1);\n        }\n    }\n/********************************************** Manufacturer Section **************************************/\n    mapping(address => bytes32[]) RawProductAtManufacturer;\n    // mapping(address => mapping(bytes32 => RawProductInfo)) RawProductDetailsAtManufacturer;\n\n    enum medicineStatus { atcreator, picked4W, picked4D, deliveredatW, deliveredatD, picked4P, deliveredatP}\n    \n    event RawProductReceive(\n        bytes32 indexed BatchID, \n        address indexed shipper, \n        address indexed supplier,\n        address receiver\n    );\n\n    function rawProductReceived(bytes32 pid) public {\n        require(\n            UsersDetails[msg.sender].role == roles.manufacturer,\n            \"Only manufacturer can call this function\"\n        );\n        require(\n            RawProductDetails[pid].productid == pid,\n            \"Product does not exist\"\n        );\n        require(\n            RawProductDetails[pid].status == packageStatus(1),\n            \"Product not picked up yet\"\n        );\n        require(\n            msg.sender == RawProductDetails[pid].receiver,\n            \"Manufacturer is different\"\n        );\n        RawProductDetails[pid].status = packageStatus(2);\n        // RawProductDetailsAtManufacturer[msg.sender][pid] = RawProductDetails[pid];\n\n        RawProductAtManufacturer[msg.sender].push(pid);\n        emit RawProductReceive(pid,RawProductDetails[pid].shipper, RawProductDetails[pid].supplier, msg.sender);\n    }\n\n    struct MedicineBatch{\n        bytes32 batchid;\n        bytes32 description;\n        bytes32 rawmatriales;\n        uint quantity;\n        address shipper;\n        address manufacturer;\n        address wholesaler;\n        address distributer;\n        address pharma;\n        medicineStatus status;\n    }\n\n    mapping(bytes32 => MedicineBatch) MedicineBatchDetails;\n    mapping(address => bytes32[]) ManufacturerMedicineBatches;\n\n    event MedicineNewBatch(\n        bytes32 indexed BatchId, \n        address indexed Manufacturer, \n        address shipper, \n        address indexed Reciever\n    );\n\n    function newBatch(\n        bytes32 Description,\n        bytes32 RawMatrials,\n        uint Quantity,\n        address Shipper,\n        address Receiver,\n        uint receivertype\n        ) public {\n    \n        require(\n            UsersDetails[msg.sender].role == roles.manufacturer,\n            \"Only manufacturer can call this function\"\n        );\n        require(\n            receivertype != 0,\n            \"Receiver Type must be define\"\n        );\n        bytes32 batchID = keccak256(abi.encodePacked(msg.sender, block.number, Quantity));\n        MedicineBatchDetails[batchID].batchid = batchID;\n        MedicineBatchDetails[batchID].description = Description;\n        MedicineBatchDetails[batchID].rawmatriales = RawMatrials;\n        MedicineBatchDetails[batchID].quantity = Quantity;\n        MedicineBatchDetails[batchID].shipper = Shipper;\n        MedicineBatchDetails[batchID].manufacturer = msg.sender;\n        MedicineBatchDetails[batchID].status = medicineStatus(0);\n        if(receivertype == 1){\n            MedicineBatchDetails[batchID].wholesaler = Receiver;\n        } else if(receivertype == 2){\n            MedicineBatchDetails[batchID].distributer = Receiver;\n        }\n\n        ManufacturerMedicineBatches[msg.sender].push(batchID);\n\n        emit MedicineNewBatch(batchID, msg.sender, Shipper, Receiver);\n    }\n\n    function getMedicineBatchCount() public view returns (uint count){\n        require(\n            UsersDetails[msg.sender].role == roles.manufacturer,\n            \"Only manufacturer can call this function\"\n        );\n        return RawProductAtManufacturer[msg.sender].length;\n    }\n\n    function getBatchIDByIndex(uint index) public view returns(bytes32 BatchID){\n        require(\n            UsersDetails[msg.sender].role == roles.manufacturer,\n            \"Only manufacturer can call this function\"\n        );\n        return RawProductAtManufacturer[msg.sender][index];\n    }\n\n    function getMedicineInfo(\n        bytes32 batchID\n    ) public \n    view\n    returns(\n        bytes32 Description,\n        bytes32 RawMatrials,\n        uint Quantity,\n        address Shipper,\n        address Manufacturer\n    ) {\n        return (\n            MedicineBatchDetails[batchID].description,\n            MedicineBatchDetails[batchID].rawmatriales,\n            MedicineBatchDetails[batchID].quantity,\n            MedicineBatchDetails[batchID].shipper,\n            MedicineBatchDetails[batchID].manufacturer\n        );\n    }\n\n    function getWDP(\n        bytes32 batchID\n    ) public\n    view\n    returns(\n        address Wholesaler,\n        address Distributer,\n        address Pharma\n    ) {\n        return (\n            MedicineBatchDetails[batchID].wholesaler,\n            MedicineBatchDetails[batchID].distributer,\n            MedicineBatchDetails[batchID].pharma\n        );\n    }\n\n    function getMedicineStatus(\n        bytes32 BatchID\n    ) public\n    view\n    returns (\n        uint status\n    ){\n        return uint(MedicineBatchDetails[BatchID].status);\n    }\n/********************************************** Wholesaler Section ****************************************/\n\n    mapping(address => bytes32[]) MedicineBatchAtWholesaler;\n\n    event MedicineReceive(\n        bytes32 indexed BathcID, \n        address indexed Sender,\n        address indexed Shipper,\n        address Receiver\n    );\n\n    function medicineReceived(bytes32 pid) public {\n        require(\n            UsersDetails[msg.sender].role == roles.wholesaler || UsersDetails[msg.sender].role == roles.distributer,\n            \"Only Wholesaler and Distributer can call this function\"\n        );\n        require(\n            MedicineBatchDetails[pid].batchid == pid,\n            \"Product does not exist\"\n        );\n        require(\n            uint(MedicineBatchDetails[pid].status) >= 1,\n            \"Product not picked up yet\"\n        );\n        \n        MedicineBatchDetails[pid].status = medicineStatus(uint(UsersDetails[msg.sender].role)-1);\n        if(UsersDetails[msg.sender].role == roles.wholesaler) {\n            require(\n                msg.sender == MedicineBatchDetails[pid].wholesaler,\n                \"Wholesaler is different\"\n            );\n            MedicineBatchAtWholesaler[msg.sender].push(pid);\n            emit MedicineReceive(pid, MedicineBatchDetails[pid].manufacturer, MedicineBatchDetails[pid].shipper,msg.sender);\n        }else if(UsersDetails[msg.sender].role == roles.distributer){\n            require(\n                msg.sender == MedicineBatchDetails[pid].distributer,\n                \"Distributer is different\"\n            );\n            if(MedicineBatchDetails[pid].wholesaler!=address(0)){\n                MedicineWtoD[pid].status = packageStatus(2);\n                emit MedicineReceive(pid, MedicineWtoD[pid].sender, MedicineWtoD[pid].shipper,msg.sender);\n            }else{\n                emit MedicineReceive(pid, MedicineBatchDetails[pid].manufacturer, MedicineBatchDetails[pid].shipper,msg.sender);\n            }\n            MedicineBatchAtDistributer[msg.sender].push(pid);\n        }\n        \n    }\n\n    struct Medicine_WtoD{\n        bytes32 batchid;\n        address sender;\n        address shipper;\n        address receiver;\n        packageStatus status;\n    }\n    mapping(bytes32 => Medicine_WtoD) MedicineWtoD;\n\n    event MedicineTransportWtoD(\n        bytes32 indexed BatchID,\n        address indexed Shipper,\n        address indexed Receiver,\n        address Sender\n    );\n\n    function shipMedicineWtoD(\n        bytes32 BatchID,\n        address Shipper,\n        address Receiver\n    ) public \n    {\n        require(\n            UsersDetails[msg.sender].role == roles.wholesaler && msg.sender == MedicineBatchDetails[BatchID].wholesaler,\n            \"Only Wholesaler or current owner of package can call this function\"\n        );\n        MedicineWtoD[BatchID].batchid = BatchID;\n        MedicineWtoD[BatchID].shipper = Shipper;\n        MedicineWtoD[BatchID].receiver = Receiver;\n        MedicineWtoD[BatchID].status = packageStatus(0);\n        MedicineWtoD[BatchID].sender = msg.sender;\n        MedicineBatchDetails[BatchID].distributer = Receiver;\n        MedicineBatchDetails[BatchID].status = medicineStatus(2);\n        \n        emit MedicineTransportWtoD(BatchID, Shipper, Receiver, msg.sender);\n    }\n\n    function shipInfoWtoD(\n        bytes32 BatchID\n    ) public\n    view\n    returns(\n        address shipper,\n        address receiver,\n        uint status\n    ) {\n        return (\n            MedicineWtoD[BatchID].shipper,\n            MedicineWtoD[BatchID].receiver,\n            uint(MedicineWtoD[BatchID].status)\n        );\n    }\n\n    function getBatchIdCountW() public view returns(uint count){\n        require(\n            UsersDetails[msg.sender].role == roles.wholesaler,\n            \"Only Wholesaler or current owner of package can call this function\"\n        );\n        return  MedicineBatchAtWholesaler[msg.sender].length;\n    }\n\n    function getBatchIdByIndexW(uint index) public view returns(bytes32 BatchID){\n        require(\n            UsersDetails[msg.sender].role == roles.wholesaler,\n            \"Only Wholesaler or current owner of package can call this function\"\n        );\n        return MedicineBatchAtWholesaler[msg.sender][index];\n    }\n\n/********************************************** Distributer Section ***************************************/\n    mapping(address => bytes32[]) MedicineBatchAtDistributer;\n\n    event MedicineShipToPharma(\n        bytes32 indexed BatchID,\n        address indexed Shipper,\n        address indexed Receiver,\n        address Sender\n    );\n\n    struct Medicine_DtoR{\n        bytes32 batchid;\n        address shipper;\n        address receiver;\n        address sender;\n        packageStatus status;\n    }\n    mapping(bytes32 => Medicine_DtoR) MedicineDtoR;\n\n    function shipMedicineDtoP(\n        bytes32 BatchID,\n        address Shipper,\n        address Receiver\n    ) public \n    {\n        require(\n            UsersDetails[msg.sender].role == roles.distributer && msg.sender == MedicineBatchDetails[BatchID].distributer,\n            \"Only Distributer or current owner of package can call this function\"\n        );\n        MedicineDtoR[BatchID].batchid = BatchID;\n        MedicineDtoR[BatchID].shipper = Shipper;\n        MedicineDtoR[BatchID].receiver = Receiver;\n        MedicineDtoR[BatchID].status = packageStatus(0);\n        MedicineDtoR[BatchID].sender = msg.sender;\n        MedicineBatchDetails[BatchID].pharma = Receiver;\n        // MedicineBatchDetails[BatchID].status = medicineStatus(5);\n\n        emit MedicineShipToPharma(BatchID, Shipper, Receiver, msg.sender);\n    }\n\n    function shipInfoDtoP(\n        bytes32 BatchID\n    ) public\n    view\n    returns(\n        address shipper,\n        address receiver,\n        uint status\n    ) {\n        return (\n            MedicineDtoR[BatchID].shipper,\n            MedicineDtoR[BatchID].receiver,\n            uint(MedicineDtoR[BatchID].status)\n        );\n    }\n\n    function getBatchIdCountD() public view returns(uint count){\n        require(\n            UsersDetails[msg.sender].role == roles.distributer,\n            \"Only Wholesaler or current owner of package can call this function\"\n        );\n        return  MedicineBatchAtDistributer[msg.sender].length;\n    }\n\n    function getBatchIdByIndexD(uint index) public view returns(bytes32 BatchID){\n        require(\n            UsersDetails[msg.sender].role == roles.distributer,\n            \"Only Wholesaler or current owner of package can call this function\"\n        );\n        return MedicineBatchAtDistributer[msg.sender][index];\n    }\n/********************************************** Pharma Section ******************************************/\n    enum salestatus{ notfound, atpharma, sold, expire, damaged}\n    mapping(address => bytes32[]) MedicineBatchAtPharma;\n    mapping(bytes32 => salestatus) sale;\n\n    event MedicineReceiveAtPharma(\n        bytes32 indexed BatchID,\n        address indexed Shipper,\n        address indexed Sender,\n        address Receiver\n    );\n    event MedicineStatus(\n        bytes32 BatchID,\n        address indexed Pharma,\n        uint status\n    );\n\n    function receiveMedicineFormD(\n        bytes32 BatchID\n    ) public {\n        require(\n            UsersDetails[msg.sender].role == roles.pharma && msg.sender == MedicineBatchDetails[BatchID].pharma,\n            \"Only Pharma or current owner of package can call this function\"\n        );\n        MedicineDtoR[BatchID].status = packageStatus(2);\n        MedicineBatchDetails[BatchID].status = medicineStatus(6);\n        MedicineBatchAtPharma[msg.sender].push(BatchID);\n        sale[BatchID] = salestatus(1);\n\n        emit MedicineReceiveAtPharma(BatchID, MedicineDtoR[BatchID].shipper, MedicineDtoR[BatchID].sender, msg.sender);\n    }\n\n    function updateSaleStatus(\n        bytes32 BatchID,\n        uint Status\n    ) public {\n        require(\n            UsersDetails[msg.sender].role == roles.pharma && msg.sender == MedicineBatchDetails[BatchID].pharma,\n            \"Only Pharma or current owner of package can call this function\"\n        );\n        require(sale[BatchID] == salestatus(1), \"Medicine Must be at Pharma\");\n        sale[BatchID] = salestatus(Status);\n\n        emit MedicineStatus(BatchID, msg.sender, Status);\n    }\n\n    function salesInfo(\n        bytes32 BatchID\n    ) public \n    view\n    returns(\n        uint Status\n    ){\n        return uint(sale[BatchID]);\n    }\n\n    function getBatchIdCountP() public view returns(uint count){\n        require(\n            UsersDetails[msg.sender].role == roles.pharma,\n            \"Only Wholesaler or current owner of package can call this function\"\n        );\n        return  MedicineBatchAtPharma[msg.sender].length;\n    }\n\n    function getBatchIdByIndexP(uint index) public view returns(bytes32 BatchID){\n        require(\n            UsersDetails[msg.sender].role == roles.pharma,\n            \"Only Wholesaler or current owner of package can call this function\"\n        );\n        return MedicineBatchAtPharma[msg.sender][index];\n    }\n}",
  "sourcePath": "/home/celebal/personal/ethereum/Blockchain_SupplyChain/contracts/SupplyChain_old.sol",
  "compiler": {
    "name": "solc",
    "version": "0.5.1+commit.c8a2cb62.Emscripten.clang"
  },
  "schemaVersion": "3.0.0",
  "updatedAt": "2019-03-08T10:18:04.977Z",
  "devdoc": {
    "methods": {}
  },
  "userdoc": {
    "methods": {}
  }
}